:02000002D0002C
:1040000000400D0020640D00000006000C000501BA
:0840100004017C050000000022
:04401800E05F0D0058
:1040200009480A49884208B505D0094A824202D0A7
:10403000121A01F091FF0748074A0021121A01F0F5
:1040400096FF014808BD00BFF0E3032090630D0018
:1040500058E4032058E40320F0E7032070B500F093
:10406000F3FD074C074BE41AA40800251E46A542A1
:1040700004D056F8253098470135F8E770BD00BFE9
:1040800084630D0040630D0000F07CB808B500F0BB
:1040900039F8BDE8084000F0A5BD00F06DBC00F0A7
:1040A00073BC00F071BC0078B0FA80F04009704732
:1040B0000123037070472DE9F0414C2494B005466C
:1040C000884617460021224601A81E4601F04FFFF0
:1040D0001A9B05931B9B8DF818301C9B8DF819308B
:1040E000002301AA194668680194CDF80880039757
:1040F000049600F019FCB0FA80F0400914B0BDE855
:10410000F081000010B5164C204600F058FA204609
:1041100000F0DEF8134B204683ED000B00F0F4F8BE
:10412000114B204683ED000B00F00AF90F4B20469F
:1041300083ED000B0E4C00F03FF90E4B204683ED53
:10414000000B00F081F8204600F08EF80A4B83ED5A
:10415000000B42F21070BDE8104000F005BD00BF3A
:1041600088E4032060E40320C0E4032078E4032013
:1041700068E40320B8E4032080E40320002309223C
:1041800000F0EABB7FB5164C1649032500260A232A
:104190008DE868000D22144B2046FFF78CFF0823A2
:1041A000142200930296114B019511492046FFF706
:1041B00082FF10491048FFF7E1FF10491048FFF750
:1041C000DDFF10491048FFF7D9FF10491048FFF7ED
:1041D000D5FF10491048FFF7D1FF04B070BD00BFF4
:1041E00004E70320FF5F0D00F45F0D000D600D007C
:1041F00016600D0060E403202B600D00C0E4032076
:1042000031600D0078E4032037600D00B8E403202E
:1042100041600D0080E403204B600D0008B500F004
:10422000EFF901210022044800F033F8122103487D
:10423000BDE8084000F004B888E4032068E40320E7
:10424000002282700170704710B50446007801F0BA
:10425000DEF8A378606033B1607801F0C5F8003013
:1042600018BF0120E07010BD13B56423009304460D
:1042700000234FF4AF624FF48051406800F068FCB7
:10428000A06001F0E3FB41EC100B02B010BD00F0A8
:10429000B7B9032310B5044680F82830052380F809
:1042A0002930C8B222706070012101F073F82078C3
:1042B000012101F06FF86078012101F07CF820788D
:1042C000002101F078F8204610BD00000000000039
:1042D00010B50446408801F0A9FB07A3D3E90023E9
:1042E00001F01AFC06A3D3E9002301F061FAC4E946
:1042F000020141EC100B10BD3BDF4F8D976E923FDA
:104300003333333333B3434010B50446408801F0B0
:104310008DFB07A3D3E9002301F0FEFB06A3D3E93D
:10432000002301F045FAC4E9040141EC100B10BD73
:104330007B14AE47E17A843F3333333333D3434086
:104340002DE9F84385880446284601F06FFB0646B0
:1043500028460F4601F07AFB11A3D3E9002301F0B0
:10436000DBFB11A3D3E9002301F022FA3246804699
:1043700089463B463046394601F0CEFB0CA3D3E9D3
:10438000002301F0C9FB02460B464046494601F0B6
:1043900011FAC4E9060141EC100BBDE8F88300BF37
:1043A00027C286A757CAA23F569FABADD85F004031
:1043B000978357CD9EC4BABED0B50446FFF7C0FF61
:1043C000A08801F043FB11A3D3E9002301F0A4FB73
:1043D00010A3D3E9002301F0EDF9002206460F46B1
:1043E000094BD4E9040101F0E3F902460B463046DB
:1043F000394601F091FBD4E9062301F0DBF9C4E969
:10440000080141EC100BD0BD00003940F168E38891
:10441000B5F8143F7B14AE47E17A843F38B50446C3
:104420000D464078012100F0B5FF2078012100F011
:10443000B1FF6078012100F0BEFF2078012100F07B
:10444000BAFF6078002100F0B6FF2078002100F06C
:10445000B2FF2078012100F0AEFF6078012100F06A
:10446000AAFF2078002100F0A6FF2B460122217828
:10447000607800F0E3FF2078012100F09CFF00212C
:10448000607800F087FF607800F0AEFF20780021B0
:1044900000F091FF6078BDE8384000F0A5BF38B566
:1044A00000210546407800F075FF64240A2000F0E2
:1044B0005BFB687800F098FF08B1013CF6D138BD8D
:1044C00010B504460121407800F064FF20780121F6
:1044D00000F060FF6078012100F06DFF207801217D
:1044E00000F069FF20780021BDE8104000F063BFB4
:1044F000F8B5002506460F462C46BD4211D00121D5
:10450000307800F058FF0A2000F02EFB707800F0A1
:104510006BFF640004440021307800F04CFF01354B
:10452000EBE72046F8BD38B5044609B1051D00E0AB
:10453000851C0021607800F02DFF0121207800F01B
:1045400029FF08212046FFF7D3FF00022880012120
:10455000607800F01FFF0121607800F02CFF00213F
:10456000607800F028FF0121207800F024FF00216E
:10457000207800F020FF0021607800F00BFF082178
:104580002046FFF7B5FF2B881843288038BD38B583
:1045900004460D4611B190F8291001E090F828105A
:1045A0002046FFF73BFF2046FFF779FF20462946CC
:1045B000FFF7B9FF2046BDE83840FFF781BF10B5CF
:1045C00000210446FFF7E3FF4FF47A7000F0CCFAC5
:1045D00020460121BDE81040FFF7D9BF00F010B818
:1045E00008B5024B1B689B68019308BD6802030075
:1045F00008B5024B1B68DB68019308BD6802030025
:1046000008B5024B1B681B68019308BD2C02030010
:1046100008B5024B1B685B68019308BD2C020300C0
:1046200008B5024B1B689B68019308BD2C02030070
:1046300008B5024B1B68DB68019308BD2C02030020
:1046400008B5024B1B681B69019308BD2C020300CF
:1046500008B5024B1B685B69019308BD2C0203007F
:1046600008B5024B1B681B6B019308BD2C020300AD
:1046700008B5024B1B68DB69019308BD30020300DB
:1046800008B5024B1B681B6A019308BD300203008A
:1046900008B5024B1B685B68019308BD1802030054
:1046A00008B5024B1B685B69019308BD1802030043
:1046B00008B5024B1B689B68019308BD48020300C4
:1046C00008B5024B1B681B69019308BD4802030033
:1046D00008B5024B1B685B69019308BD48020300E3
:1046E00008B5024B1B681B6B019308BD4802030011
:1046F00008B5024B1B685B6C019308BD48020300C0
:1047000008B5024B1B685B69019308BD6402030096
:1047100008B5024B1B681B68019308BD3C020300EF
:1047200008B5024B1B68DB68019308BD3C0203001F
:1047300008B5024B1B681B69019308BD3C020300CE
:1047400008B5024B1B685B69019308BD3C0203007E
:1047500008B5024B1B689B69019308BD3C0203002E
:1047600008B5024B1B68DB69019308BD3C020300DE
:1047700008B5024B1B681B6A019308BD3C0203008D
:1047800008B5024B1B689B6A019308BD3C020300FD
:1047900008B5024B1B681B6A019308BD2802030081
:1047A00008B5024B1B685B6A019308BD2802030031
:1047B00008B5024B1B689B6A019308BD28020300E1
:1047C00008B5024B1B68DB6A019308BD2802030091
:1047D00008B5024B1B681B6B019308BD2802030040
:1047E00008B5024B1B685B6B019308BD28020300F0
:1047F00008B5024B1B681B6C019308BD280203001F
:1048000008B5024B1B681B68019308BD4C020300EE
:1048100008B5024B1B681B69019308BD4C020300DD
:1048200008B5024B1B685B69019308BD4C0203008D
:1048300008B5024B1B689B69019308BD4C0203003D
:1048400008B5024B1B68DB69019308BD4C020300ED
:1048500008B5024B1B681B6A019308BD4C0203009C
:1048600008B5024B1B685B68019308BD200203007A
:1048700008B5024B1B685B69019308BD2002030069
:1048800008B5034B1B68D3F88830019308BD0000BE
:104890002002030008B5034B1B68D3F89430019342
:1048A00008BD00002002030008B5024B1B685B68CE
:1048B000019308BD4002030008B5024B1B689B68CA
:1048C000019308BD4002030008B5024B1B68DB687A
:1048D000019308BD4002030008B5024B1B681B6929
:1048E000019308BD4002030008B5024B1B685B69D9
:1048F000019308BD4002030008B5024B1B689B6989
:10490000019308BD4002030008B5024B1B68DB6938
:10491000019308BD4002030008B5024B1B681B6AE7
:10492000019308BD4002030008B5024B1B689B6A57
:10493000019308BD4002030008B5024B1B681B6BC6
:10494000019308BD4002030008B5024B1B685B6B76
:10495000019308BD4002030008B5024B1B681B68A9
:10496000019308BD4402030008B5024B1B68DB6BD2
:10497000019308BD4402030008B5024B1B681B6885
:10498000019308BD1C02030008B5024B1B685B685D
:10499000019308BD1C020300002211464068FFF786
:1049A000BBBF002211464068FFF7CEBF002240681F
:1049B000FFF7C2BF002281F001014068FFF7A4BFEA
:1049C00000231A4619464068FFF796BF00231A468F
:1049D00019464068FFF788BF002211464068FFF77C
:1049E0007BBF002211464068FFF766BF002202210C
:1049F0004068FFF769BF00231A464068FFF754BFBD
:104A0000024B03225A60024A1A607047C8E403202E
:104A100060600D00704710B51021044600F079FD6C
:104A2000204610BD70B5084B0360044600250E46B5
:104A300040F80C5FFFF754FE30462671FFF718FE72
:104A4000A560204670BD00BF94600D000079FFF79F
:104A500017BE0000044B00204FF6FF7218705880FC
:104A60009A80FFF7FDBE00BFD0E403200248002378
:104A70000360FFF73DBE00BFD8E40320F8B506464B
:104A80000D468F180024BD420CD0336815F8011B69
:104A90009B6830469847002801DB0444F3E7002C6C
:104AA00008BF04462046F8BD70B505460C460846CA
:104AB00049B101F08DFA2B68024621462846DB6891
:104AC000BDE87040184770BD03689B68184730B553
:104AD0008BB00B4600218DF82410012A98BF0A22C2
:104AE0000DF12304B3FBF2F505FB123303F0FF03D2
:104AF000092B94BF30333733DBB2214604F8013938
:104B00002B46002DEED1FFF7CFFF0BB030BD10B418
:104B10002AB903685DF8044B9B68C9B21847D2B242
:104B20005DF8044BFFF7D3BFFFF7F1BF014B024A1B
:104B30001A607047DCE403200F610D00024B1A6815
:104B4000024B1A60704700BFF0E30320E0E403204B
:104B50008A4230B507D0039D441AED1A6C43521AAD
:104B600094FBF2F4E01830BD0021FFF781BE10B5D0
:104B70008368044613B1032201469847204610BDBE
:104B800010B50446FFF7F3FF204610BD0348044A62
:104B900004490023836000F0B7BC00BFE4E40320B5
:104BA00058E40320814B0D0008B50C4B33B100F0E5
:104BB00035F903681B699847002809DC084B63B185
:104BC00000F0AEF903681B699847002803DC08BDB4
:104BD000AFF30080F2E7AFF3008008BD00000000F3
:104BE0000000000008B5FFF7DFFFFFF759FD014B9C
:104BF000186008BD34E7032007B5002300931A4668
:104C00006FF07701FFF746FE03B05DF804FB00008C
:104C100007B543880A2B08D0502B09D1094B1B68D4
:104C20003BB103B05DF804EB1847FFF7E5FF06E082
:104C3000002300931A466FF07701FFF72BFE03B0B5
:104C40005DF804FBF4E4032010B5FFF721FD0446F2
:104C500001F096F9074B13B12046AFF30080002115
:104C60000448FFF781FE00210348BDE81040FFF72C
:104C700007BE00BF00000000114C0D00704710B5CA
:104C80001821044600F045FC204610BDF0B5037D18
:104C9000062B8DB00E4600F104074FF0000402D041
:104CA00000F1080518E00CAD394605F8304D2F230A
:104CB0002A460A20FFF724FD284601F089F93368C7
:104CC0000246DB682946304698470FE024B12E2182
:104CD0003046FFF7F9FE044415F8011D0A2230465C
:104CE000FFF722FFBD420444F0D120460DB0F0BDD5
:104CF00010B5054B0446112240F8043B002101F099
:104D000036F9204610BD00BFB0610D000346074ACA
:104D100010B543F8042B01F1100251F8044B43F88D
:104D2000044B9142F9D10A781A7010BDB0610D00A0
:104D300010B59DF8084044EA032343EA024242EAE0
:104D4000016104234160037510BD37B50D788B7880
:104D50004A78C97800912946FFF7EAFF03B030BDD1
:104D600041747047704708B50021007CFFF760FD73
:104D700030EA200028BF4FF0FF3008BD08B5012100
:104D8000007CFFF755FD30EA200028BF4FF0FF30D0
:104D900008BD08B5007CFFF743FD20EAE07008BDC0
:104DA00008B5007CFFF734FD20EAE07008BD007C08
:104DB000FFF74EBD10B51421044600F0AAFB2046B3
:104DC00010BD38B50446007C0D46FFF729FD0028CC
:104DD00001DC607C28B12946207CFFF731FD20EA08
:104DE000E07038BD10B50446002363604FF47A7359
:104DF000A360054B236001230846217463741146A8
:104E0000FFF7FEFC204610BDC4610D0010B5142252
:104E10000446002101F0ABF8204610BD30B50E4D20
:104E200087B001A8FFF7F2FF296811F0010410D143
:104E30002846FFF738F960B101AA21460748FFF775
:104E4000D1FF2846FFF734F9054A0649034800F028
:104E50005BFB024807B030BDF8E40320FCE403200C
:104E600058E40320654D0D0070474174704708B544
:104E7000007CFFF785FC20EAE07008BD08B5007CE7
:104E8000FFF756FC20EAE07008BD08B5007CFFF78C
:104E90005FFC30EA200028BF4FF0FF3008BD08B5A6
:104EA000007CFFF74DFC30EA200028BF4FF0FF30B8
:104EB00008BD007CFFF754BC10B51421044600F077
:104EC00028FB204610BD70B5457C04460E4625B92A
:104ED000007CFFF755FC002805DD3146207CBDE84D
:104EE0007040FFF71DBC284670BD000010B5044699
:104EF00008461146002262604FF47A72A260054AA9
:104F000022600122207462741A46FFF701FC2046D9
:104F100010BD00BFF4610D00007CFFF729BC00004C
:104F2000F8B5194C25684DB98420FFF7B6F8064648
:104F300018B18422294601F01AF82660134D2E6814
:104F40004EB98420FFF7A9F8074618B184223146EC
:104F500001F00DF82F600E4F396811F0010611D1E4
:104F60003846FFF7A0F868B122682B680948314637
:104F7000FFF7BCFF3846FFF79BF8074A074905488B
:104F800000F0C2FA0348F8BD2CE5032024E5032015
:104F900028E5032010E5032058E40320694E0D00A6
:104FA0007047F8B5064615460C468F18BC4206D029
:104FB000336814F8011B9B6830469847F6E728468B
:104FC000F8BD0022007CFFF7E3BB0021007CFFF767
:104FD000E7BB0021007CFFF7EBBB0021007CFFF763
:104FE000EFBB0021007CFFF7F3BB10B51421044692
:104FF00000F08FFA204610BD10B504464FF47A73C6
:105000000846A3600021044B207461602360FFF711
:10501000EFFB204610BD00BF24620D000021007C84
:10502000FFF7DEBB002211464068FFF775BC002287
:1050300011464068FFF788BC00224068FFF77CBC3F
:10504000002281F001014068FFF75EBC00231A4690
:1050500001214068FFF750BC00231A4619464068FA
:10506000FFF742BC002211464068FFF735BC002222
:1050700011464068FFF720BC002202214068FFF77C
:1050800023BC00231A464068FFF70EBC38B505461E
:1050900088B104684CB1A3681BB1032221462046A5
:1050A00098471021204600F034FA28461421BDE824
:1050B000384000F02EBA38BD10B103685B6818475D
:1050C000704710B503680446BBB15868FFF7F0FAA3
:1050D00078B923685A7C12B95868FFF7F1FA236847
:1050E0005868FFF7F5FA20680023236028B1FFF71E
:1050F000CDFF206808B1FFF7C9FF204610BD0000B2
:1051000038B50C4B03600446D0F8CC0108B1FEF76B
:10511000C8FFD4F8C45135B12846FFF7D2FF0421A7
:10512000284600F0F6F9A06808B1FFF7C5FF204651
:1051300038BD00BF4C620D0038B50E4C0E4B2360DD
:105140000025022304F5E4706360A560C4F8C4512F
:10515000C4F8C851FFF7CCFA084BC4F8CC5184F816
:10516000D05123602046064A0649BDE8384000F089
:10517000CBB900BF30E50320B4620D004C620D00D6
:1051800058E4032001510D00002211464068FFF74A
:10519000A3BB002211464068FFF7BEBB00221146A8
:1051A0004068FFF7D1BB00224068FFF7C5BB002273
:1051B00081F001014068FFF7A7BB00231A4619469A
:1051C0004068FFF799BB00231A4619464068FFF76D
:1051D0008BBB002211464068FFF76EBB0022022104
:1051E0004068FFF771BB00231A464068FFF75CBBBD
:1051F000024B04225A60024A1A60704704E70320F7
:1052000080620D0000231A464068FFF74DBB002264
:1052100002214068FFF758BB002211464068FFF7A3
:105220004BBB002211464068FFF756BB00231A46CD
:1052300019464068FFF758BB00231A4619464068D4
:10524000FFF75ABB002281F001014068FFF75CBB09
:1052500000224068FFF770BB002211464068FFF74C
:1052600073BB002211464068FFF756BB2DE9F0439F
:10527000002495B016460D460746FFF739FD214636
:1052800020220CA8009400F072FE40230C932146CB
:105290006B460CAA3046FFF7ABF90446002844D110
:1052A000024601216868FFF717FB0221804622466B
:1052B0006868FFF711FB009E81462146002E34D01E
:1052C000002932D17368022B02D00A2B09D02AE0C0
:1052D000B8F1000F27D0716938460431FFF735FD6A
:1052E00020E0B9F1000F1ED07469112201A800F06E
:1052F0003EFE06238DF8143001AD04F10803183486
:10530000186859682A4603C20833A3421546F7D1E4
:1053100001A906A807ADFFF7F9FC0FCD3C1D0FC48E
:105320002B6823700121F669C8E70098FFF758F948
:10533000384615B0BDE8F083024B034A1A600022DC
:105340005A6070470CE70320B4620D0010B50446A4
:105350000F48FFF77BFB28B1A4F10B03022B01D808
:10536000002010BD00F0B0F8FFF758FE08B1012C86
:10537000F6D9FFF7D5FDFFF7CFFD18B1A4F109036A
:10538000012BEDD9232C8CBF0020012010BD00BFC4
:1053900014E70320232838B504460D460AD8FF2910
:1053A00008D0FFF7D3FF28B129462046BDE8384092
:1053B000FFF736B938BD38B504460D46FFF738F962
:1053C000FF2810D0062804D84D2323FA00F0C30785
:1053D00009D42046FFF7BAFF28B129462046BDE888
:1053E0003840FFF72DB938BD10B50446FFF720F956
:1053F0000438C0B2012808D92046FFF7A7FF20B122
:105400002046BDE81040FFF723B9002010BD0D284D
:1054100010B504469CBF0E34A4B22046FFF796FF99
:1054200050B103212046FFF7F3F8032804D12046AA
:10543000BDE81040FFF714B9002010BD2DE9F04180
:1054400090461E46072407460D46B8F1000F04D1CA
:10545000C4F1070146FA01F101E046FA04F101F056
:1054600001013846FFF7A7FF01212846FFF7A3FFF8
:1054700000212846FFF79FFF14F1FF34E5D2BDE875
:10548000F081000070B50C4C0C4E0D4D00212046F3
:10549000FFF7C8FA20460B4C3246294600F034F894
:1054A00001212046FFF7BEFA324629462046BDE8D4
:1054B000704000F029B800BF14E7032058E403202F
:1054C000154A0D0024E7032038B50B4D296811F06B
:1054D00001040FD12846FEF7E6FD58B121460748E2
:1054E000FFF78AFD2846FEF7E3FD054A0549034814
:1054F00000F00AF8014838BD38E703203CE70320F4
:1055000058E40320A14F0D000B460146184600F059
:1055100015BDFEF7C4BD0000184B1A68D1075CBF6B
:1055200001221A60164B1A68D2075CBF01221A606A
:10553000144B1A68D0075CBF01221A60124B1A681C
:10554000D1075CBF01221A60104B1A68D2075CBFFA
:1055500001221A600E4B1A68D0075CBF01221A6044
:105560000C4B1A68D1075CBF01221A600A4B1A68FB
:10557000D2075CBF01221A60704700BF6CE70320AE
:1055800068E7032064E7032060E703205CE703206B
:1055900058E7032054E7032050E70320244B1A6800
:1055A000D0075CBF01221A60224B1A68D1075CBF8A
:1055B00001221A60204B1A68D2075CBF01221A60D0
:1055C0001E4B1A68D0075CBF01221A601C4B1A6878
:1055D000D1075CBF01221A601A4B1A68D2075CBF60
:1055E00001221A60184B1A68D0075CBF01221A60AA
:1055F000164B1A68D1075CBF01221A60144B1A6857
:10560000D2075CBF01221A60124B1A68D0075CBF38
:1056100001221A60104B1A68D1075CBF01221A6080
:105620000E4B1A68D2075CBF01221A60704700BF98
:105630009CE7032098E7032094E7032090E70320EA
:105640008CE7032088E7032084E7032080E703201A
:105650007CE7032078E7032074E7032070E703204A
:10566000244B1A68D0075CBF01221A60224B1A68CB
:10567000D1075CBF01221A60204B1A68D2075CBFB9
:1056800001221A601E4B1A68D0075CBF01221A6003
:105690001C4B1A68D1075CBF01221A601A4B1A68AA
:1056A000D2075CBF01221A60184B1A68D0075CBF92
:1056B00001221A60164B1A68D1075CBF01221A60DA
:1056C000144B1A68D2075CBF01221A60124B1A6889
:1056D000D0075CBF01221A60104B1A68D1075CBF6B
:1056E00001221A600E4B1A68D2075CBF01221A60B1
:1056F000704700BFCCE70320C8E70320C4E70320BE
:10570000C0E70320BCE70320B8E70320B4E7032089
:10571000B0E70320ACE70320A8E70320A4E70320B9
:10572000A0E70320184B1A68D1075CBF01221A605A
:10573000164B1A68D2075CBF01221A60144B1A6814
:10574000D0075CBF01221A60124B1A68D1075CBFF8
:1057500001221A60104B1A68D2075CBF01221A603E
:105760000E4B1A68D0075CBF01221A600C4B1A68F6
:10577000D1075CBF01221A600A4B1A68D2075CBFCE
:1057800001221A60704700BFECE70320E8E703201E
:10579000E4E70320E0E70320DCE70320D8E7032069
:1057A000D4E70320D0E7032081F0004102E000BFEE
:1057B00083F0004330B54FEA41044FEA430594EAD1
:1057C000050F08BF90EA020F1FBF54EA000C55EA0C
:1057D000020C7FEA645C7FEA655C00F0E2804FEADD
:1057E0005454D4EB5555B8BF6D420CDD2C4480EABF
:1057F000020281EA030382EA000083EA010180EAEF
:10580000020281EA0303362D88BF30BD11F0004F3C
:105810004FEA01314FF4801C4CEA113102D0404272
:1058200061EB410113F0004F4FEA03334CEA1333AD
:1058300002D0524263EB430394EA050F00F0A780C5
:10584000A4F10104D5F1200E0DDB02FA0EFC22FAC0
:1058500005F2801841F1000103FA0EF2801843FAB4
:1058600005F359410EE0A5F120050EF1200E012AA5
:1058700003FA0EFC28BF4CF0020C43FA05F3C018E3
:1058800051EBE37101F0004507D54FF0000EDCF15C
:10589000000C7EEB00006EEB0101B1F5801F1BD305
:1058A000B1F5001F0CD349085FEA30004FEA3C0C09
:1058B00004F101044FEA445212F5800F80F09A80FF
:1058C000BCF1004F08BF5FEA500C50F1000041EB03
:1058D000045141EA050130BD5FEA4C0C404141EB07
:1058E000010111F4801FA4F10104E9D191F0000F2E
:1058F00004BF01460020B1FA81F308BF2033A3F1B1
:105900000B03B3F120020CDA0C3208DD02F1140CA7
:10591000C2F10C0201FA0CF021FA02F10CE002F1E2
:105920001402D8BFC2F1200C01FA02F120FA0CFCDB
:10593000DCBF41EA0C019040E41AA2BF01EB045124
:10594000294330BD6FEA04041F3C1CDA0C340EDC22
:1059500004F11404C4F1200220FA04F001FA02F365
:1059600040EA030021FA04F345EA030130BDC4F123
:105970000C04C4F1200220FA02F001FA04F340EA18
:105980000300294630BD21FA04F0294630BD94F0C9
:10599000000F83F4801306BF81F480110134013DB0
:1059A0004EE77FEA645C18BF7FEA655C29D094EA21
:1059B000050F08BF90EA020F05D054EA000C04BF9F
:1059C0001946104630BD91EA030F1EBF002100208A
:1059D00030BD5FEA545C05D14000494128BF41F029
:1059E000004130BD14F580043CBF01F5801130BD8D
:1059F00001F0004545F0FE4141F470014FF0000018
:105A000030BD7FEA645C1ABF194610467FEA655CC8
:105A10001CBF0B46024650EA013406BF52EA03356A
:105A200091EA030F41F4002130BD00BF90F0000F58
:105A300004BF0021704730B54FF4806404F1320494
:105A40004FF000054FF0000150E700BF90F0000F4D
:105A500004BF0021704730B54FF4806404F1320474
:105A600010F0004548BF40424FF000013EE700BF44
:105A700042004FEAE2014FEA31014FEA02701FBFD4
:105A800012F07F4393F07F4F81F06051704792F0A6
:105A9000000F14BF93F07F4F704730B54FF4607420
:105AA00001F0004521F0004120E700BF50EA01026B
:105AB00008BF704730B54FF000050AE050EA010218
:105AC00008BF704730B511F0004502D5404261EB88
:105AD00041014FF4806404F132045FEA915C3FF4C9
:105AE000DCAE4FF003025FEADC0C18BF03325FEA62
:105AF000DC0C18BF033202EBDC02C2F1200300FA17
:105B000003FC20FA02F001FA03FE40EA0E0021FA3B
:105B100002F11444C1E600BF70B54FF0FF0C4CF425
:105B2000E06C1CEA11541DBF1CEA135594EA0C0FDB
:105B300095EA0C0F00F0DEF82C4481EA030621EA16
:105B40004C5123EA4C5350EA013518BF52EA033551
:105B500041F4801143F4801338D0A0FB02CE4FF003
:105B60000005E1FB02E506F00042E0FB03E54FF033
:105B70000006E1FB03569CF0000F18BF4EF0010E2B
:105B8000A4F1FF04B6F5007F64F5407404D25FEA27
:105B90004E0E6D4146EB060642EAC62141EA5551DA
:105BA0004FEAC52040EA5E504FEACE2EB4F1FD0C1C
:105BB00088BFBCF5E06F1ED8BEF1004F08BF5FEA9A
:105BC000500E50F1000041EB045170BD06F000464C
:105BD00046EA010140EA020081EA0301B4EB5C04F9
:105BE000C2BFD4EB0C0541EA045170BD41F48011F1
:105BF0004FF0000E013C00F3AB8014F1360FDEBF16
:105C0000002001F0004170BDC4F10004203C35DAF1
:105C10000C341BDC04F11404C4F1200500FA05F374
:105C200020FA04F001FA05F240EA020001F0004215
:105C300021F0004110EBD37021FA04F642EB06018B
:105C40005EEA430E08BF20EAD37070BDC4F10C04B5
:105C5000C4F1200500FA04F320FA05F001FA04F279
:105C600040EA020001F0004110EBD37041F1000165
:105C70005EEA430E08BF20EAD37070BDC4F1200570
:105C800000FA05F24EEA020E20FA04F301FA05F2D8
:105C900043EA020321FA04F001F0004121FA04F280
:105CA00020EA020000EBD3705EEA430E08BF20EA50
:105CB000D37070BD94F0000F0FD101F0004640008A
:105CC00041EB010111F4801F08BF013CF7D041EA0C
:105CD000060195F0000F18BF704703F00046520010
:105CE00043EB030313F4801F08BF013DF7D043EAE1
:105CF0000603704794EA0C0F0CEA135518BF95EA97
:105D00000C0F0CD050EA410618BF52EA4306D1D11D
:105D100081EA030101F000414FF0000070BD50EA3C
:105D2000410606BF1046194652EA430619D094EAC6
:105D30000C0F02D150EA013613D195EA0C0F05D1B0
:105D400052EA03361CBF104619460AD181EA030104
:105D500001F0004141F0FE4141F470014FF00000BC
:105D600070BD41F0FE4141F4780170BD70B54FF057
:105D7000FF0C4CF4E06C1CEA11541DBF1CEA1355D7
:105D800094EA0C0F95EA0C0F00F0A7F8A4EB0504B9
:105D900081EA030E52EA03354FEA013100F08880B0
:105DA0004FEA03334FF0805545EA131343EA126379
:105DB0004FEA022245EA111545EA10654FEA00262E
:105DC0000EF000419D4208BF964244F1FD0404F5E7
:105DD000407402D25B084FEA3202B61A65EB030543
:105DE0005B084FEA32024FF480104FF4002CB6EB00
:105DF000020E75EB030E22BFB61A754640EA0C0080
:105E00005B084FEA3202B6EB020E75EB030E22BFBF
:105E1000B61A754640EA5C005B084FEA3202B6EB00
:105E2000020E75EB030E22BFB61A754640EA9C00BF
:105E30005B084FEA3202B6EB020E75EB030E22BF8F
:105E4000B61A754640EADC0055EA060E18D04FEA4D
:105E5000051545EA16754FEA06164FEAC30343EAED
:105E600052734FEAC2025FEA1C1CC0D111F4801FBA
:105E70000BD141EA00014FF000004FF0004CB6E7B3
:105E800011F4801F04BF01430020B4F1FD0C88BF52
:105E9000BCF5E06F3FF6AFAEB5EB030C04BFB6EB5D
:105EA000020C5FEA500C50F1000041EB045170BD50
:105EB0000EF0004E4EEA113114EB5C04C2BFD4EB7D
:105EC0000C0541EA045170BD41F480114FF0000E01
:105ED000013C90E645EA060E8DE60CEA135594EA7D
:105EE0000C0F08BF95EA0C0F3FF43BAF94EA0C0F80
:105EF0000AD150EA01347FF434AF95EA0C0F7FF4F5
:105F000025AF104619462CE795EA0C0F06D152EA48
:105F100003353FF4FDAE1046194622E750EA41062C
:105F200018BF52EA43067FF4C5AE50EA41047FF43D
:105F30000DAF52EA43057FF4EBAE12E710B5054C06
:105F400013462CB10A4601460220AFF3008010BD73
:105F5000204610BD0000000010B5431E0A449142C7
:105F600004D011F8014B03F8014FF8E710BD0244CB
:105F70000346934202D003F8011BFAE77047000082
:105F800038B5124B1C68A36B0546D3B91820FEF731
:105F9000F3FC43F20E33A06303804AF6CD33438013
:105FA00041F2342383804EF26D63C3804DF6EC637F
:105FB0000381052343810B23838101220023C0E950
:105FC0000423A36B00221D615A6138BD54E40320F1
:105FD000034613F8012B002AFBD1181A0138704729
:105FE00021400D005D400D0089400D008D400D00E9
:105FF0000000000070617373777264313030004DBF
:1060000041535445525F4C4150544F500033323548
:1060100030654A2B3900494545452D544845524D78
:10602000414C54414B20343832340054656D704635
:106030000054656D70430048756D69646974794CEE
:106040000048756D69646974795400474D6F6973D0
:106050007475726550000000000000000000000030
:10606000F7490D00ED490D00E3490D00D9490D0038
:10607000CD490D00C1490D00B5490D00AD490D00D8
:10608000A3490D0099490D006D520D00000000005C
:1060900000000000154A0D00174A0D00626175648A
:1060A0000053657269616C0053657269616C3100FF
:1060B0007479706500706172616D00636D64006970
:1060C0006400686E64007374726D0066696C7400BD
:1060D0006C766C0061646448616E646C6572007219
:1060E000656D6F766548616E646C657200656E758E
:1060F0006D48616E646C657273004A534F4E537401
:106100007265616D4C6F6748616E646C65720061A9
:10611000707000253031307520005D20002564004E
:106120002C200028293A2000205B00636F64652042
:106130003D200025690064657461696C73203D2011
:10614000000D0A0066006C6E00666E00636F646589
:106150000064657461696C006E6F6E6500747261D5
:10616000636500696E666F007761726E00657272BA
:106170006F720070616E696300616C6C005A00257B
:106180002B3033643A253032750025592D256D2D7D
:1061900025645425483A254D3A2553257A006173E4
:1061A0006374696D650000000000000000000000DD
:1061B0008D4C0D007D4C0D007F4C0D00000000004B
:1061C00000000000654D0D00B54D0D00C34D0D00E4
:1061D0007D4A0D00A14D0D00674D0D007D4D0D0058
:1061E000AF4D0D00934D0D00614D0D0000000000FE
:1061F00000000000694E0D00B94E0D00C74E0D00A5
:106200007D4A0D007D4E0D009F4E0D008B4E0D0002
:10621000B34E0D006B4E0D006F4E0D0000000000E0
:1062200000000000A14F0D00EB4F0D00C34F0D000B
:10623000A34F0D00CB4F0D00D34F0D00DB4F0D00D2
:10624000E34F0D00000000000000000083500D002F
:1062500079500D006F500D0065500D0059500D0024
:106260004D500D0041500D0039500D002F500D00C4
:1062700025500D006D520D000000000000000000D0
:10628000E7510D00DD510D00D3510D0089510D0076
:10629000C7510D00BB510D00AF510D00A7510D00AE
:1062A0009D510D0093510D006D520D000000000036
:1062B0000000000005520D000F520D0019520D0094
:1062C00023520D002D520D0039520D0045520D0084
:1062D00051520D0059520D0063520D006D520D00C8
:1062E00000000000000000000000000000000000AE
:1062F000000000000000000000000000000000009E
:10630000000000000000000000000000000000008D
:10631000000000000000000000000000000000007D
:10632000000000000000000000000000000000006D
:10633000000000000000000000000000000000005D
:106340001D420D008F420D00DD450D00014A0D007C
:10635000554A0D006D4A0D002D4B0D003D4B0D00B3
:106360008D4B0D0039510D00F1510D0039530D00C9
:1063700085540D0019550D009D550D0061560D00F9
:1063800025570D0000000000000000000000000084
:106390009E610D0000000000E0620D0000630D0032
:1063A00020630D000000000000000000000000005D
:1063B0000000000035600D0000000000000000003B
:1063C00000000000000000000000000000000000CD
:1063D00000000000000000000000000000000000BD
:1063E00000000000000000000000000000000000AD
:0863F00000000000F4E30320AB
:1063F800FFFFFFFF00000102030405060708090A62
:106408000B0C0D0E0F101112131415161718191A5C
:086418001B1C1D1E1F202800A3
:046420007856341264
:04000003D0004020C9
:00000001FF
