:02000002D0002C
:1040000000400D00E0520D00000006000E0005010A
:08401000040179050000000025
:04401800744F0D00D4
:10401C0009480A49884208B505D0094A824202D0AB
:10402C00121A00F05DFF0748074A0021121A00F02F
:10403C0062FF014808BD00BF7CE4032050520D0014
:10404C00E4E40320E4E40320F0E7032070B500F07F
:10405C00C9FA074C074BE41AA40800251E46A542D2
:10406C0004D056F8253098470135F8E770BD00BFED
:10407C0050520D0018520D0000F015B808B500F0A4
:10408C0013F8BDE8084000F07BBA00F04DB900F021
:10409C0053B900F051B90078B0FA80F0400970477C
:1040AC000123037070477047704700F011B800008F
:1040BC0008B5024B1B689B68019308BD680203009E
:1040CC0008B5024B1B68DB68019308BD680203004E
:1040DC0008B5024B1B681B68019308BD2C0203003A
:1040EC0008B5024B1B68DB69019308BD3002030065
:1040FC0008B5024B1B685B68019308BD18020300EE
:10410C0008B5024B1B685B69019308BD18020300DC
:10411C0008B5024B1B689B68019308BD480203005D
:10412C0008B5024B1B681B69019308BD48020300CC
:10413C0008B5024B1B685B69019308BD480203007C
:10414C0008B5024B1B681B6B019308BD48020300AA
:10415C0008B5024B1B685B6C019308BD4802030059
:10416C0008B5024B1B685B69019308BD6402030030
:10417C0008B5024B1B681B68019308BD3C02030089
:10418C0008B5024B1B68DB68019308BD3C020300B9
:10419C0008B5024B1B681B69019308BD3C02030068
:1041AC0008B5024B1B685B69019308BD3C02030018
:1041BC0008B5024B1B689B69019308BD3C020300C8
:1041CC0008B5024B1B68DB69019308BD3C02030078
:1041DC0008B5024B1B689B6A019308BD3C020300A7
:1041EC0008B5024B1B681B68019308BD4C02030009
:1041FC0008B5024B1B681B69019308BD4C020300F8
:10420C0008B5024B1B685B69019308BD4C020300A7
:10421C0008B5024B1B689B69019308BD4C02030057
:10422C0008B5024B1B68DB69019308BD4C02030007
:10423C0008B5024B1B681B6A019308BD4C020300B6
:10424C0008B5024B1B685B68019308BD2002030094
:10425C0008B5034B1B68D3F88830019308BD0000E8
:10426C002002030008B5034B1B68D3F8943001936C
:10427C0008BD00002002030008B5024B1B685B68F8
:10428C00019308BD4002030008B5024B1B689B68F4
:10429C00019308BD4002030008B5024B1B68DB68A4
:1042AC00019308BD4002030008B5024B1B681B6953
:1042BC00019308BD4002030008B5024B1B685B6903
:1042CC00019308BD4002030008B5024B1B689B69B3
:1042DC00019308BD4002030008B5024B1B68DB6963
:1042EC00019308BD4002030008B5024B1B681B6A12
:1042FC00019308BD4002030008B5024B1B681B6B01
:10430C00019308BD4002030008B5024B1B685B6BB0
:10431C00019308BD4002030008B5024B1B68DB6B20
:10432C00019308BD4402030008B5024B1B681B68CF
:10433C00019308BD1C02030008B5024B1B685B68A7
:10434C00019308BD1C020300002211464068FFF7D0
:10435C00CBBF002211464068FFF7D6BF0022406851
:10436C00FFF7CABF002281F001014068FFF7B4BF1C
:10437C0000231A4619464068FFF7A6BF00231A46C9
:10438C0019464068FFF798BF002211464068FFF7B6
:10439C008BBF002211464068FFF776BF0022022136
:1043AC004068FFF779BF00231A464068FFF764BFE7
:1043BC00024B03225A60024A1A607047E8E4032059
:1043CC00904F0D00704710B51021044600F02FFCE3
:1043DC00204610BD70B5084B0360044600250E4600
:1043EC0040F80C5FFFF7ACFE30462671FFF778FE05
:1043FC00A560204670BD00BFC44F0D00044B0020CB
:10440C004FF6FF72187058809A80FFF719BF00BFE3
:10441C00F0E40320024800230360FFF799BE00BFBD
:10442C00F8E40320F8B506460D468F180024BD426B
:10443C000CD0336815F8011B9B6830469847002850
:10444C0001DB0444F3E7002C08BF04462046F8BD0A
:10445C0070B505460C46084649B100F07DFD2B6849
:10446C00024621462846DB68BDE87040184770BDFF
:10447C0003689B68184730B58BB00B4600218DF84C
:10448C002410012A98BF0A220DF12304B3FBF2F584
:10449C0005FB123303F0FF03092B94BF3033373382
:1044AC00DBB2214604F801392B46002DEED1FFF783
:1044BC00CFFF0BB030BD10B42AB903685DF8044BC4
:1044CC009B68C9B21847D2B25DF8044BFFF7D3BF53
:1044DC00FFF7F1BF014B024A1A607047FCE403205E
:1044EC003F500D00024B1A68024B1A60704700BF18
:1044FC007CE4032000E5032010B58368044613B167
:10450C00032201469847204610BD10B50446FFF71C
:10451C00F3FF204610BD00000348044A0449002361
:10452C00836000F07FBB00BF04E50320E4E40320BC
:10453C0017450D0008B50F4B33B100F03DF903687A
:10454C001B69984700280DDC0B4B33B100F0B2F916
:10455C0003681B699847002807DC084B43B1AFF38D
:10456C00008008BDAFF30080EEE7AFF30080F4E706
:10457C0008BD00BF000000000000000000000000AB
:10458C0008B5FFF7D7FFFFF7BBFD014B186008BD5F
:10459C004CE7032007B5002300931A466FF0770110
:1045AC00FFF760FE03B05DF804FB000007B543881D
:1045BC000A2B08D0502B09D1094B1B683BB103B017
:1045CC005DF804EB1847FFF7E5FF06E000230093C6
:1045DC001A466FF07701FFF745FE03B05DF804FB58
:1045EC0014E5032010B5FFF783FD044600F08CFCA6
:1045FC00074B13B12046AFF3008000210448FFF7AE
:10460C008BFE00210348BDE81040FFF721BE00BF20
:10461C0000000000B9450D00704710B51821044684
:10462C0000F005FB204610BDF0B5037D062B8DB0C8
:10463C000E4600F104074FF0000402D000F108050B
:10464C0018E00CAD394605F8304D2F232A460A20C8
:10465C00FFF786FD284600F07FFC33680246DB68D6
:10466C002946304698470FE024B12E213046FFF7FB
:10467C00FFFE044415F8011D0A223046FFF728FFFF
:10468C00BD420444F0D120460DB0F0BD10B5054B31
:10469C000446112240F8043B002100F02CFC20467B
:1046AC0010BD00BFE0500D000346074A10B543F89B
:1046BC00042B01F1100251F8044B43F8044B9142C6
:1046CC00F9D10A781A7010BDE0500D0010B59DF8A4
:1046DC00084044EA032343EA024242EA016104230C
:1046EC004160037510BD37B50D788B784A78C97861
:1046FC0000912946FFF7EAFF03B030BD41747047C3
:10470C00704708B50021007CFFF782FD30EA2000DD
:10471C0028BF4FF0FF3008BD08B50121007CFFF722
:10472C0077FD30EA200028BF4FF0FF3008BD08B5F8
:10473C00007CFFF765FD20EAE07008BD08B5007C41
:10474C00FFF756FD20EAE07008BD007CFFF770BD56
:10475C0010B51421044600F06AFA204610BD38B595
:10476C000446007C0D46FFF74BFD002801DC607C05
:10477C0028B12946207CFFF753FD20EAE07038BDB4
:10478C0010B50446002363604FF47A73A360054BA5
:10479C00236001230846217463741146FFF720FD42
:1047AC00204610BDF4500D0010B514220446002113
:1047BC0000F0A1FB204610BD30B50E4D87B001A80E
:1047CC00FFF7F2FF296811F0010410D12846FFF71A
:1047DC0062FC60B101AA21460748FFF7D1FF2846C9
:1047EC00FFF75EFC054A0649034800F01BFA024835
:1047FC0007B030BD18E503201CE50320E4E40320DA
:10480C000D470D0070474174704708B5007CFFF7E9
:10481C00DFFC20EAE07008BD08B5007CFFF7B8FCAF
:10482C0020EAE07008BD08B5007CFFF7C1FC30EA57
:10483C00200028BF4FF0FF3008BD08B5007CFFF703
:10484C00AFFC30EA200028BF4FF0FF3008BD007CE1
:10485C00FFF7B6BC10B51421044600F0E8F9204669
:10486C0010BD70B5457C04460E4625B9007CFFF79B
:10487C00AFFC002805DD3146207CBDE87040FFF719
:10488C007FBC284670BD000010B504460846114692
:10489C00002262604FF47A72A260054A2260012203
:1048AC00207462741A46FFF763FC204610BD00BFEB
:1048BC0024510D00F8B5194C25684DB98420FFF72B
:1048CC00E4FB064618B18422294600F014FB26604E
:1048DC00134D2E684EB98420FFF7D7FB074618B14D
:1048EC008422314600F007FB2F600E4F396811F01F
:1048FC00010611D13846FFF7CEFB68B122682B6850
:10490C0009483146FFF7C0FF3846FFF7C9FB074A95
:10491C000749054800F086F90348F8BD4CE503202B
:10492C0044E5032048E5032030E50320E4E40320BC
:10493C0011480D00002211464068FFF7D5BC00223B
:10494C0011464068FFF7E0BC00224068FFF7D4BC7A
:10495C00002281F001014068FFF7BEBC00231A461B
:10496C0001214068FFF7B0BC00231A461946406885
:10497C00FFF7A2BC002211464068FFF795BC00224D
:10498C0011464068FFF780BC002202214068FFF707
:10499C0083BC00231A464068FFF76EBC38B5054649
:1049AC0088B104684CB1A3681BB103222146204690
:1049BC0098471021204600F03AF928461421BDE80A
:1049CC00384000F034B938BD10B103685B68184743
:1049DC00704710B503680446BBB15868FFF798FBE5
:1049EC0078B923685A7C12B95868FFF799FB236889
:1049FC005868FFF79DFB20680023236028B1FFF760
:104A0C00CDFF206808B1FFF7C9FF204610BD00009C
:104A1C0038B50C4B03600446D0F8CC0108B1FFF755
:104A2C0038FBD4F8C45135B12846FFF7D2FF042126
:104A3C00284600F0FCF8A06808B1FFF7C5FF204637
:104A4C0038BD00BF54510D0038B50E4C0E4B2360D1
:104A5C000025022304F5E4706360A560C4F8C4511A
:104A6C00C4F8C851FFF774FB084BC4F8CC5184F858
:104A7C00D05123602046064A0649BDE8384000F074
:104A8C00D1B800BF50E5032088510D0054510D00E2
:104A9C00E4E403201D4A0D0000231A464068FFF78A
:104AAC00EBBB002202214068FFF7F6BB0022114647
:104ABC004068FFF7E9BB002211464068FFF7F4BBE2
:104ACC0000231A4619464068FFF7F6BB00231A4626
:104ADC0019464068FFF7F8BB002281F001014068DD
:104AEC00FFF7FABB00224068FFF706BC0022114614
:104AFC004068FFF709BC002211464068FFF7F4BB81
:104B0C002DE9F043002495B016460D460746FFF7F5
:104B1C00BDFD214620220CA8009400F0ECF94023A6
:104B2C000C9321466B460CAA3046FFF7C9FA044693
:104B3C00002844D1024601216868FFF7B5FB022129
:104B4C00804622466868FFF7AFFB009E81462146EF
:104B5C00002E34D0002932D17368022B02D00A2BDC
:104B6C0009D02AE0B8F1000F27D07169384604311A
:104B7C00FFF7B9FD20E0B9F1000F1ED074691122C6
:104B8C0001A800F0B8F906238DF8143001AD04F13A
:104B9C0008031834186859682A4603C20833A3421C
:104BAC001546F7D101A906A807ADFFF77DFD0FCD7E
:104BBC003C1D0FC42B6823700121F669C8E70098CF
:104BCC00FFF776FA384615B0BDE8F083024B034A7E
:104BDC001A6000225A60704724E7032088510D00A8
:104BEC0070B50C4C0C4E0D4D00212046FFF7F2FB1E
:104BFC0020460B4C3246294600F014F80121204681
:104C0C00FFF7E8FB324629462046BDE8704000F02D
:104C1C0009B800BF2CE70320E4E40320D1430D00C6
:104C2C003CE703200B460146184600F04BB9FFF752
:104C3C002EBA0000184B1A68D1075CBF01221A600B
:104C4C00164B1A68D2075CBF01221A60144B1A6803
:104C5C00D0075CBF01221A60124B1A68D1075CBFE7
:104C6C0001221A60104B1A68D2075CBF01221A602D
:104C7C000E4B1A68D0075CBF01221A600C4B1A68E5
:104C8C00D1075CBF01221A600A4B1A68D2075CBFBD
:104C9C0001221A60704700BF6CE7032068E703200D
:104CAC0064E7032060E703205CE7032058E7032058
:104CBC0054E7032050E70320244B1A68D0075CBF4D
:104CCC0001221A60224B1A68D1075CBF01221A60BC
:104CDC00204B1A68D2075CBF01221A601E4B1A685F
:104CEC00D0075CBF01221A601C4B1A68D1075CBF4D
:104CFC0001221A601A4B1A68D2075CBF01221A6093
:104D0C00184B1A68D0075CBF01221A60164B1A6840
:104D1C00D1075CBF01221A60144B1A68D2075CBF22
:104D2C0001221A60124B1A68D0075CBF01221A606C
:104D3C00104B1A68D1075CBF01221A600E4B1A681F
:104D4C00D2075CBF01221A60704700BF9CE70320AA
:104D5C0098E7032094E7032090E703208CE70320D7
:104D6C0088E7032084E7032080E703207CE7032007
:104D7C0078E7032074E7032070E70320244B1A68BC
:104D8C00D0075CBF01221A60224B1A68D1075CBFA6
:104D9C0001221A60204B1A68D2075CBF01221A60EC
:104DAC001E4B1A68D0075CBF01221A601C4B1A6894
:104DBC00D1075CBF01221A601A4B1A68D2075CBF7C
:104DCC0001221A60184B1A68D0075CBF01221A60C6
:104DDC00164B1A68D1075CBF01221A60144B1A6873
:104DEC00D2075CBF01221A60124B1A68D0075CBF55
:104DFC0001221A60104B1A68D1075CBF01221A609D
:104E0C000E4B1A68D2075CBF01221A60704700BFB4
:104E1C00CCE70320C8E70320C4E70320C0E7032046
:104E2C00BCE70320B8E70320B4E70320B0E7032076
:104E3C00ACE70320A8E70320A4E70320A0E70320A6
:104E4C00184B1A68D1075CBF01221A60164B1A68FE
:104E5C00D2075CBF01221A60144B1A68D0075CBFE2
:104E6C0001221A60124B1A68D1075CBF01221A602A
:104E7C00104B1A68D2075CBF01221A600E4B1A68DD
:104E8C00D0075CBF01221A600C4B1A68D1075CBFBB
:104E9C0001221A600A4B1A68D2075CBF01221A6001
:104EAC00704700BFECE70320E8E70320E4E70320AA
:104EBC00E0E70320DCE70320D8E70320D4E7032056
:104ECC00D0E7032010B5054C13462CB10A46014619
:104EDC000220AFF3008010BD204610BD0000000082
:104EEC0010B5431E0A44914204D011F8014B03F84B
:104EFC00014FF8E710BD02440346934202D003F879
:104F0C00011BFAE77047000038B5124B1C68A36B05
:104F1C000546D3B91820FFF707FA43F20E33A06306
:104F2C0003804AF6CD33438041F2342383804EF222
:104F3C006D63C3804DF6EC630381052343810B2322
:104F4C00838101220023C0E90423A36B00221D618D
:104F5C005A6138BDE0E40320034613F8012B002A04
:104F6C00FBD1181A013870471D400D0059400D0037
:104F7C0085400D0089400D0000000000000000007D
:104F8C0000000000B3430D00A9430D009F430D002A
:104F9C0095430D0089430D007D430D0071430D00B9
:104FAC0069430D005F430D0055430D000D4B0D0083
:104FBC000000000000000000D1430D00D3430D00A1
:104FCC00626175640053657269616C005365726946
:104FDC00616C31007479706500706172616D006391
:104FEC006D6400696400686E64007374726D0066B1
:104FFC00696C74006C766C0061646448616E646CFE
:10500C0065720072656D6F766548616E646C657271
:10501C0000656E756D48616E646C657273004A5301
:10502C004F4E53747265616D4C6F6748616E646C62
:10503C0065720061707000253031307520005D2084
:10504C00002564002C200028293A2000205B0063F6
:10505C006F6465203D200025690064657461696C8E
:10506C0073203D20000D0A0066006C6E00666E0019
:10507C00636F64650064657461696C006E6F6E6566
:10508C0000747261636500696E666F007761726EA1
:10509C00006572726F720070616E696300616C6C96
:1050AC00005A00252B3033643A25303275002559CF
:1050BC002D256D2D25645425483A254D3A2553252B
:1050CC007A0061736374696D650000000000000074
:1050DC000000000035460D0025460D0027460D004A
:1050EC0000000000000000000D470D005D470D00A2
:1050FC006B470D0031440D0049470D000F470D0063
:10510C0025470D0057470D003B470D0009470D0083
:10511C00000000000000000011480D0061480D0067
:10512C006F480D0031440D0025480D0047480D0017
:10513C0033480D005B480D0013480D0017480D0057
:10514C0000000000000000009F490D0095490D0073
:10515C008B490D0081490D0075490D0069490D0001
:10516C005D490D0055490D004B490D0041490D009D
:10517C000D4B0D000000000000000000A54A0D00C2
:10518C00AF4A0D00B94A0D00C34A0D00CD4A0D00BF
:10519C00D94A0D00E54A0D00F14A0D00F94A0D00FF
:1051AC00034B0D000D4B0D00000000000000000033
:1051BC0000000000000000000000000000000000E3
:1051CC0000000000000000000000000000000000D3
:1051DC0000000000000000000000000000000000C3
:1051EC0000000000000000000000000000000000B3
:1051FC0000000000000000000000000000000000A3
:10520C00000000000000000043000000B7400D004B
:10521C00BD430D0009440D0021440D00E1440D0077
:10522C00F1440D0025450D00554A0D00D94B0D00DC
:10523C00ED4B0D00414C0D00C54C0D00894D0D0082
:04524C004D4E0D00B6
:10525000CE500D0000000000B4510D00D4510D00DF
:10526000F4510D00000000000000000000000000EC
:105270000000000014520D000000000000000000BB
:10528000000000000000000000000000000000001E
:10529000000000000000000000000000000000000E
:1052A00000000000000000000000000000000000FE
:0852B0000000000080E403206F
:1052B800FFFFFFFF00000102030405060708090AB3
:1052C8000B0C0D0E0F101112131415161718191AAE
:0852D8001B1C1D1E1F202800F5
:0452E00078563412B6
:04000003D000401CCD
:00000001FF
