:02000002D0002C
:1040000000400D0070600D00000006000E0005016C
:08401000040179050000000025
:04401800C45C0D0077
:1040200009480A49884208B505D0094A824202D0A7
:10403000121A01F003FE0748074A0021121A01F084
:1040400008FE014808BD00BF30E40320E05F0D001A
:1040500098E4032098E40320F0E7032070B500F013
:10406000BBFC074C074BE41AA40800251E46A542DA
:1040700004D056F8253098470135F8E770BD00BFE9
:10408000D85F0D00985F0D0000F016B808B500F07D
:104090002BF8BDE8084000F06DBC00F039BB00F023
:1040A0003FBB00F03DBB0078B0FA80F0400970479C
:1040B000012303707047000010B500230922064950
:1040C000064800F015FB0023092205490548BDE814
:1040D000104000F00DBB00BFA0E40320D85C0D0031
:1040E000C8E40320DE5C0D0010B50B4C204600F048
:1040F0004AF9204600F040F8084B204683ED000BBB
:1041000000F056F8064B83ED000B42F21070BDE84C
:10411000104000F0E9BB00BFA8E40320A0E40320A6
:10412000C8E4032008B500F04FF90022012102483D
:10413000BDE8084000F004B8A8E4032000F044B94A
:10414000032310B50446037605234376C8B22270D4
:104150006070012100F0A8FF2078012100F0A4FF89
:104160006078012100F0B1FF2078002100F0ADFF60
:10417000204610BD0000000010B50446408801F044
:10418000C7FA07A3D3E9002301F038FB06A3D3E95C
:10419000002301F07FF9C4E9020141EC100B10BDCE
:1041A0003BDF4F8D976E923F3333333333B343400E
:1041B00010B50446408801F0ABFA07A3D3E9002309
:1041C00001F01CFB06A3D3E9002301F063F9C4E965
:1041D000040141EC100B10BD7B14AE47E17A843F23
:1041E0003333333333D3434038B504460D46407838
:1041F000012100F059FF2078012100F055FF60787F
:10420000012100F062FF2078012100F05EFF60785C
:10421000002100F05AFF2078002100F056FF20789E
:10422000012100F052FF6078012100F04EFF20785C
:10423000002100F04AFF2B4601222178607800F02F
:1042400070FF2078012100F040FF0021607800F02D
:104250002BFF607800F052FF2078002100F035FF3E
:104260006078BDE8384000F049BF38B50021054608
:10427000407800F019FF64240A2000F035FB6878CC
:1042800000F03CFF08B1013CF6D138BD10B5044642
:104290000121407800F008FF2078012100F004FFA0
:1042A0006078012100F011FF2078012100F00DFF5E
:1042B00020780021BDE8104000F007BFF8B50024C9
:1042C00006460F462546BD4211DA0121307800F03E
:1042D000FCFE0A2000F008FB707800F00FFF64007D
:1042E00004440021307800F0F0FE0135EBE7204671
:1042F000F8BD38B5044609B1051D00E0851C002154
:10430000607800F0D1FE0121207800F0CDFE082178
:104310002046FFF7D3FF000228800121607800F0DB
:10432000C3FE0121607800F0D0FE0021607800F02B
:10433000CCFE0121207800F0C8FE0021207800F09A
:10434000C4FE0021607800F0AFFE08212046FFF790
:10435000B5FF2B881843288038BD38B504460D4674
:1043600009B1417E00E0017E2046FFF73DFF204677
:10437000FFF77BFF20462946FFF7BBFF2046BDE83D
:104380003840FFF783BF10B500210446FFF7E5FF73
:104390004FF47A7000F0A8FA20460121BDE81040E1
:1043A000FFF7DBBF00F010B808B5024B1B689B6835
:1043B000019308BD6802030008B5024B1B68DB6867
:1043C000019308BD6802030008B5024B1B681B6817
:1043D000019308BD2C02030008B5024B1B689B68C3
:1043E000019308BD2C02030008B5024B1B68DB6873
:1043F000019308BD2C02030008B5024B1B681B6922
:10440000019308BD2C02030008B5024B1B685B69D1
:10441000019308BD2C02030008B5024B1B68DB6941
:10442000019308BD3002030008B5024B1B681B6AEC
:10443000019308BD3002030008B5024B1B685B689E
:10444000019308BD1802030008B5024B1B685B69A5
:10445000019308BD1802030008B5024B1B689B6856
:10446000019308BD4802030008B5024B1B681B6995
:10447000019308BD4802030008B5024B1B685B6945
:10448000019308BD4802030008B5024B1B681B6B73
:10449000019308BD4802030008B5024B1B685B6C22
:1044A000019308BD4802030008B5024B1B685B6915
:1044B000019308BD6402030008B5024B1B681B682A
:1044C000019308BD3C02030008B5024B1B68DB6882
:1044D000019308BD3C02030008B5024B1B681B6931
:1044E000019308BD3C02030008B5024B1B685B69E1
:1044F000019308BD3C02030008B5024B1B689B6991
:10450000019308BD3C02030008B5024B1B68DB6940
:10451000019308BD3C02030008B5024B1B681B6AEF
:10452000019308BD3C02030008B5024B1B689B6A5F
:10453000019308BD3C02030008B5024B1B681B6ACF
:10454000019308BD2802030008B5024B1B685B6A93
:10455000019308BD2802030008B5024B1B689B6A43
:10456000019308BD2802030008B5024B1B68DB6AF3
:10457000019308BD2802030008B5024B1B681B6BA2
:10458000019308BD2802030008B5024B1B685B6B52
:10459000019308BD2802030008B5024B1B681B6C81
:1045A000019308BD2802030008B5024B1B681B6875
:1045B000019308BD4C02030008B5024B1B681B6940
:1045C000019308BD4C02030008B5024B1B685B69F0
:1045D000019308BD4C02030008B5024B1B689B69A0
:1045E000019308BD4C02030008B5024B1B68DB6950
:1045F000019308BD4C02030008B5024B1B681B6AFF
:10460000019308BD4C02030008B5024B1B685B68B0
:10461000019308BD2002030008B5024B1B685B69CB
:10462000019308BD2002030008B5034B1B68D3F8B3
:104630008830019308BD00002002030008B5034B39
:104640001B68D3F89430019308BD000020020300DA
:1046500008B5024B1B685B68019308BD400203006C
:1046600008B5024B1B689B68019308BD400203001C
:1046700008B5024B1B68DB68019308BD40020300CC
:1046800008B5024B1B681B69019308BD400203007B
:1046900008B5024B1B685B69019308BD400203002B
:1046A00008B5024B1B689B69019308BD40020300DB
:1046B00008B5024B1B68DB69019308BD400203008B
:1046C00008B5024B1B681B6A019308BD400203003A
:1046D00008B5024B1B681B6B019308BD4002030029
:1046E00008B5024B1B685B6B019308BD40020300D9
:1046F00008B5024B1B681B68019308BD4402030008
:1047000008B5024B1B68DB6B019308BD4402030034
:1047100008B5024B1B681B68019308BD1C0203000F
:1047200008B5024B1B685B68019308BD1C020300BF
:10473000002211464068FFF7C3BF002211464068BF
:10474000FFF7CEBF00224068FFF7C2BF002281F012
:1047500001014068FFF7ACBF00231A4619464068C4
:10476000FFF79EBF00231A4619464068FFF790BF27
:10477000002211464068FFF783BF002211464068BF
:10478000FFF76EBF002202214068FFF771BF0023D0
:104790001A464068FFF75CBF024B03225A60024A88
:1047A0001A607047D0E40320EC5C0D00704710B530
:1047B0001021044600F01FFD204610BD70B5084BC7
:1047C0000360044600250E4640F80C5FFFF75CFED0
:1047D00030462671FFF720FEA560204670BD00BF61
:1047E000205D0D000079FFF71FBE0000044B002084
:1047F0004FF6FF72187058809A80FFF705BF00BF10
:10480000D8E40320024800230360FFF745BE00BF41
:10481000E0E40320F8B506460D468F180024BD429B
:104820000CD0336815F8011B9B6830469847002868
:1048300001DB0444F3E7002C08BF04462046F8BD22
:1048400070B505460C46084649B101F033FA2B68AD
:10485000024621462846DB68BDE87040184770BD17
:1048600003689B68184730B58BB00B4600218DF864
:104870002410012A98BF0A220DF12304B3FBF2F59C
:1048800005FB123303F0FF03092B94BF303337339A
:10489000DBB2214604F801392B46002DEED1FFF79B
:1048A000CFFF0BB030BD10B42AB903685DF8044BDC
:1048B0009B68C9B21847D2B25DF8044BFFF7D3BF6B
:1048C000FFF7F1BF014B024A1A607047E4E403208E
:1048D0009B5D0D00024B1A68024B1A60704700BFC7
:1048E00030E40320E8E403200021FFF795BE10B573
:1048F0008368044613B1032201469847204610BD41
:1049000010B50446FFF7F3FF204610BD0348044AE4
:1049100004490023836000F069BC00BFECE403207D
:1049200098E4032001490D0008B50F4B33B100F0A6
:104930003DF903681B69984700280DDC0B4B33B128
:1049400000F0B6F903681B699847002807DC084B9C
:1049500043B1AFF3008008BDAFF30080EEE7AFF3E3
:104960000080F4E708BD00BF000000000000000068
:104970000000000008B5FFF7D7FFFFF765FD014B0A
:10498000186008BD34E7032007B5002300931A46DA
:104990006FF07701FFF752FE03B05DF804FB0000F3
:1049A00007B543880A2B08D0502B09D1094B1B6847
:1049B0003BB103B05DF804EB1847FFF7E5FF06E0F5
:1049C000002300931A466FF07701FFF737FE03B01C
:1049D0005DF804FBFCE4032010B5FFF72DFD044651
:1049E00001F040F9074B13B12046AFF300800021DE
:1049F0000448FFF785FE00210348BDE81040FFF79B
:104A000013BE00BF00000000A1490D00704710B5A3
:104A10001821044600F0EFFB204610BDF0B5037DE1
:104A2000062B8DB00E4600F104074FF0000402D0B3
:104A300000F1080518E00CAD394605F8304D2F237C
:104A40002A460A20FFF730FD284601F033F9336883
:104A50000246DB682946304698470FE024B12E21F4
:104A60003046FFF7FDFE044415F8011D0A223046CA
:104A7000FFF726FFBD420444F0D120460DB0F0BD43
:104A800010B5054B0446112240F8043B002101F00B
:104A9000E0F8204610BD00BF3C5E0D000346074A0B
:104AA00010B543F8042B01F1100251F8044B43F800
:104AB000044B9142F9D10A781A7010BD3C5E0D008A
:104AC00010B59DF8084044EA032343EA024242EA53
:104AD000016104234160037510BD37B50D788B78F3
:104AE0004A78C97800912946FFF7EAFF03B030BD44
:104AF00041747047704708B50021007CFFF76CFDDA
:104B000030EA200028BF4FF0FF3008BD08B5012172
:104B1000007CFFF761FD30EA200028BF4FF0FF3036
:104B200008BD08B5007CFFF74FFD20EAE07008BD26
:104B300008B5007CFFF740FD20EAE07008BD007C6E
:104B4000FFF75ABD10B51421044600F054FB20466F
:104B500010BD38B50446007C0D46FFF735FD002832
:104B600001DC607C28B12946207CFFF73DFD20EA6E
:104B7000E07038BD10B50446002363604FF47A73CB
:104B8000A360054B2360012308462174637411461A
:104B9000FFF70AFD204610BD505E0D0010B514222F
:104BA0000446002101F055F8204610BD30B50E4DE9
:104BB00087B001A8FFF7F2FF296811F0010410D1B6
:104BC0002846FFF770FA60B101AA21460748FFF7AF
:104BD000D1FF2846FFF76CFA054A0649034800F062
:104BE00005FB024807B030BD00E5032004E50320C3
:104BF00098E40320F54A0D0070474174704708B5EA
:104C0000007CFFF791FC20EAE07008BD08B5007C4D
:104C1000FFF762FC20EAE07008BD08B5007CFFF7F2
:104C20006BFC30EA200028BF4FF0FF3008BD08B50C
:104C3000007CFFF759FC30EA200028BF4FF0FF301E
:104C400008BD007CFFF760BC10B51421044600F0DD
:104C5000D2FA204610BD70B5457C04460E4625B9F3
:104C6000007CFFF761FC002805DD3146207CBDE8B3
:104C70007040FFF729BC284670BD000010B50446FF
:104C800008461146002262604FF47A72A260054A1B
:104C900022600122207462741A46FFF70DFC204640
:104CA00010BD00BF805E0D00007CFFF735BC00002A
:104CB000F8B5194C25684DB98420FFF7EEF9064682
:104CC00018B18422294600F0C4FF2660134D2E68D7
:104CD0004EB98420FFF7E1F9074618B18422314626
:104CE00000F0B7FF2F600E4F396811F0010611D1A7
:104CF0003846FFF7D8F968B122682B680948314671
:104D0000FFF7BCFF3846FFF7D3F9074A07490548C4
:104D100000F06CFA0348F8BD34E503202CE50320CD
:104D200030E5032018E5032098E40320F94B0D003B
:104D30007047F8B5064615460C468F18BC4206D09B
:104D4000336814F8011B9B6830469847F6E72846FD
:104D5000F8BD0022007CFFF7EFBB0021007CFFF7CD
:104D6000F3BB0021007CFFF7F7BB0021007CFFF7BD
:104D7000FBBB0021007CFFF7FFBB10B514210446EC
:104D800000F039FA204610BD10B504464FF47A738E
:104D90000846A3600021044B207461602360FFF784
:104DA000FBFB204610BD00BFB05E0D000021007C63
:104DB000FFF7EABB002211464068FFF781BC0022E2
:104DC00011464068FFF78CBC00224068FFF780BCAA
:104DD000002281F001014068FFF76ABC00231A46F7
:104DE00001214068FFF75CBC00231A461946406861
:104DF000FFF74EBC002211464068FFF741BC00227D
:104E000011464068FFF72CBC002202214068FFF7E2
:104E10002FBC00231A464068FFF71ABC38B5054678
:104E200088B104684CB1A3681BB103222146204617
:104E300098471021204600F0DEF928461421BDE8ED
:104E4000384000F0D8B938BD10B103685B68184726
:104E5000704710B503680446BBB15868FFF7FCFA09
:104E600078B923685A7C12B95868FFF7FDFA2368AD
:104E70005868FFF701FB20680023236028B1FFF783
:104E8000CDFF206808B1FFF7C9FF204610BD000024
:104E900038B50C4B03600446D0F8CC0108B1FFF7DD
:104EA00000F9D4F8C45135B12846FFF7D2FF0421E8
:104EB000284600F0A0F9A06808B1FFF7C5FF20461A
:104EC00038BD00BFD85E0D0038B50E4C0E4B2360C8
:104ED0000025022304F5E4706360A560C4F8C451A2
:104EE000C4F8C851FFF7D8FA084BC4F8CC5184F87D
:104EF000D05123602046064A0649BDE8384000F0FC
:104F000075B900BF38E503200C5F0D00D85E0D00B9
:104F100098E40320914E0D0000231A464068FFF7E5
:104F200097BB002202214068FFF7A2BB0022114676
:104F30004068FFF795BB002211464068FFF7A0BB11
:104F400000231A4619464068FFF7A2BB00231A4601
:104F500019464068FFF7A4BB002281F001014068B8
:104F6000FFF7A6BB00224068FFF7B2BB0022114644
:104F70004068FFF7B5BB002211464068FFF7A0BBB1
:104F80002DE9F043002495B016460D460746FFF77D
:104F900077FD214620220CA8009400F05AFE402301
:104FA0000C9321466B460CAA3046FFF705FA0446DF
:104FB000002844D1024601216868FFF761FB022105
:104FC000804622466868FFF75BFB009E81462146CB
:104FD000002E34D0002932D17368022B02D00A2B64
:104FE00009D02AE0B8F1000F27D0716938460431A2
:104FF000FFF773FD20E0B9F1000F1ED07469112294
:1050000001A800F026FE06238DF8143001AD04F14E
:1050100008031834186859682A4603C20833A342A3
:105020001546F7D101A906A807ADFFF737FD0FCD4B
:105030003C1D0FC42B6823700121F669C8E7009856
:10504000FFF7B2F9384615B0BDE8F083024B034ACA
:105050001A6000225A6070470CE703200C5F0D00B5
:1050600010B504460F48FFF7BDFB28B1A4F10B03B0
:10507000022B01D8002010BD00F098F8FFF796FE33
:1050800008B1012CF6D9FFF713FEFFF70DFE18B19A
:10509000A4F10903012BEDD91E2C8CBF00200120A7
:1050A00010BD00BF14E703201E2838B504460D4686
:1050B0000AD8FF2908D0FFF7D3FF28B12946204698
:1050C000BDE83840FFF788B938BD38B504460D460D
:1050D000FFF78AF9FF2810D0062804D84D2323FAB9
:1050E00000F0C30709D42046FFF7BAFF28B12946CC
:1050F0002046BDE83840FFF77FB938BD10B50446FB
:10510000FFF772F90438C0B2012808D92046FFF72A
:10511000A7FF20B12046BDE81040FFF775B9002079
:1051200010BD2DE9F04190461E46072407460D4666
:10513000B8F1000F04D1C4F1070146FA01F101E012
:1051400046FA04F101F001013846FFF7BEFF0121E4
:105150002846FFF7BAFF00212846FFF7B6FF14F1F3
:10516000FF34E5D2BDE8F08170B50C4C0C4E0D4D0E
:1051700000212046FFF722FB20460B4C32462946F1
:1051800000F034F801212046FFF718FB324629468B
:105190002046BDE8704000F029B800BF14E70320A6
:1051A00098E40320AD470D0024E7032038B50B4DEC
:1051B000296811F001040FD12846FEF774FF58B199
:1051C00021460748FFF7E0FD2846FEF771FF054A34
:1051D0000549034800F00AF8014838BD38E70320C4
:1051E0003CE7032098E40320314D0D000B460146B7
:1051F000184600F015BDFEF752BF0000184B1A68A4
:10520000D1075CBF01221A60164B1A68D2075CBF37
:1052100001221A60144B1A68D0075CBF01221A6081
:10522000124B1A68D1075CBF01221A60104B1A6832
:10523000D2075CBF01221A600E4B1A68D0075CBF10
:1052400001221A600C4B1A68D1075CBF01221A6058
:105250000A4B1A68D2075CBF01221A60704700BF70
:105260006CE7032068E7032064E7032060E703207E
:105270005CE7032058E7032054E7032050E70320AE
:10528000244B1A68D0075CBF01221A60224B1A68AF
:10529000D1075CBF01221A60204B1A68D2075CBF9D
:1052A00001221A601E4B1A68D0075CBF01221A60E7
:1052B0001C4B1A68D1075CBF01221A601A4B1A688E
:1052C000D2075CBF01221A60184B1A68D0075CBF76
:1052D00001221A60164B1A68D1075CBF01221A60BE
:1052E000144B1A68D2075CBF01221A60124B1A686D
:1052F000D0075CBF01221A60104B1A68D1075CBF4F
:1053000001221A600E4B1A68D2075CBF01221A6094
:10531000704700BF9CE7032098E7032094E7032031
:1053200090E703208CE7032088E7032084E703202D
:1053300080E703207CE7032078E7032074E703205D
:1053400070E70320244B1A68D0075CBF01221A6063
:10535000224B1A68D1075CBF01221A60204B1A68E1
:10536000D2075CBF01221A601E4B1A68D0075CBFCF
:1053700001221A601C4B1A68D1075CBF01221A6017
:105380001A4B1A68D2075CBF01221A60184B1A68C0
:10539000D0075CBF01221A60164B1A68D1075CBFA8
:1053A00001221A60144B1A68D2075CBF01221A60EE
:1053B000124B1A68D0075CBF01221A60104B1A68A2
:1053C000D1075CBF01221A600E4B1A68D2075CBF7E
:1053D00001221A60704700BFCCE70320C8E7032012
:1053E000C4E70320C0E70320BCE70320B8E703209D
:1053F000B4E70320B0E70320ACE70320A8E70320CD
:10540000A4E70320A0E70320184B1A68D1075CBF6C
:1054100001221A60164B1A68D2075CBF01221A607B
:10542000144B1A68D0075CBF01221A60124B1A682D
:10543000D1075CBF01221A60104B1A68D2075CBF0B
:1054400001221A600E4B1A68D0075CBF01221A6055
:105450000C4B1A68D1075CBF01221A600A4B1A680C
:10546000D2075CBF01221A60704700BFECE703203F
:10547000E8E70320E4E70320E0E70320DCE703207C
:10548000D8E70320D4E70320D0E7032081F00041D0
:1054900002E000BF83F0004330B54FEA41044FEA19
:1054A000430594EA050F08BF90EA020F1FBF54EAB4
:1054B000000C55EA020C7FEA645C7FEA655C00F050
:1054C000E2804FEA5454D4EB5555B8BF6D420CDD21
:1054D0002C4480EA020281EA030382EA000083EAA4
:1054E000010180EA020281EA0303362D88BF30BD44
:1054F00011F0004F4FEA01314FF4801C4CEA11319A
:1055000002D0404261EB410113F0004F4FEA0333F8
:105510004CEA133302D0524263EB430394EA050F83
:1055200000F0A780A4F10104D5F1200E0DDB02FAF2
:105530000EFC22FA05F2801841F1000103FA0EF286
:10554000801843FA05F359410EE0A5F120050EF14C
:10555000200E012A03FA0EFC28BF4CF0020C43FA7D
:1055600005F3C01851EBE37101F0004507D54FF08A
:10557000000EDCF1000C7EEB00006EEB0101B1F5DA
:10558000801F1BD3B1F5001F0CD349085FEA300020
:105590004FEA3C0C04F101044FEA445212F5800F2B
:1055A00080F09A80BCF1004F08BF5FEA500C50F1C8
:1055B000000041EB045141EA050130BD5FEA4C0CAB
:1055C000404141EB010111F4801FA4F10104E9D134
:1055D00091F0000F04BF01460020B1FA81F308BF2B
:1055E0002033A3F10B03B3F120020CDA0C3208DDF7
:1055F00002F1140CC2F10C0201FA0CF021FA02F1D2
:105600000CE002F11402D8BFC2F1200C01FA02F141
:1056100020FA0CFCDCBF41EA0C019040E41AA2BF66
:1056200001EB0451294330BD6FEA04041F3C1CDA2E
:105630000C340EDC04F11404C4F1200220FA04F04E
:1056400001FA02F340EA030021FA04F345EA0301F8
:1056500030BDC4F10C04C4F1200220FA02F001FABA
:1056600004F340EA0300294630BD21FA04F029463C
:1056700030BD94F0000F83F4801306BF81F48011D5
:105680000134013D4EE77FEA645C18BF7FEA655C48
:1056900029D094EA050F08BF90EA020F05D054EA1A
:1056A000000C04BF1946104630BD91EA030F1EBF1F
:1056B0000021002030BD5FEA545C05D14000494123
:1056C00028BF41F0004130BD14F580043CBF01F516
:1056D000801130BD01F0004545F0FE4141F47001FC
:1056E0004FF0000030BD7FEA645C1ABF19461046D7
:1056F0007FEA655C1CBF0B46024650EA013406BFD8
:1057000052EA033591EA030F41F4002130BD00BF96
:1057100090F0000F04BF0021704730B54FF4806453
:1057200004F132044FF000054FF0000150E700BFD4
:1057300090F0000F04BF0021704730B54FF4806433
:1057400004F1320410F0004548BF40424FF0000120
:105750003EE700BF42004FEAE2014FEA31014FEA63
:1057600002701FBF12F07F4393F07F4F81F06051B2
:10577000704792F0000F14BF93F07F4F704730B521
:105780004FF4607401F0004521F0004120E700BFB4
:1057900050EA010208BF704730B54FF000050AE03B
:1057A00050EA010208BF704730B511F0004502D53C
:1057B000404261EB41014FF4806404F132045FEA3E
:1057C000915C3FF4DCAE4FF003025FEADC0C18BFE3
:1057D00003325FEADC0C18BF033202EBDC02C2F1D9
:1057E000200300FA03FC20FA02F001FA03FE40EA6B
:1057F0000E0021FA02F11444C1E600BF70B54FF06B
:10580000FF0C4CF4E06C1CEA11541DBF1CEA13554C
:1058100094EA0C0F95EA0C0F00F0DEF82C4481EAB4
:10582000030621EA4C5123EA4C5350EA013518BFD4
:1058300052EA033541F4801143F4801338D0A0FBC1
:1058400002CE4FF00005E1FB02E506F00042E0FB6E
:1058500003E54FF00006E1FB03569CF0000F18BF74
:105860004EF0010EA4F1FF04B6F5007F64F540741C
:1058700004D25FEA4E0E6D4146EB060642EAC621AF
:1058800041EA55514FEAC52040EA5E504FEACE2E1C
:10589000B4F1FD0C88BFBCF5E06F1ED8BEF1004F1F
:1058A00008BF5FEA500E50F1000041EB045170BD9B
:1058B00006F0004646EA010140EA020081EA0301DF
:1058C000B4EB5C04C2BFD4EB0C0541EA045170BDDB
:1058D00041F480114FF0000E013C00F3AB8014F155
:1058E000360FDEBF002001F0004170BDC4F100049E
:1058F000203C35DA0C341BDC04F11404C4F120051F
:1059000000FA05F320FA04F001FA05F240EA020079
:1059100001F0004221F0004110EBD37021FA04F6AF
:1059200042EB06015EEA430E08BF20EAD37070BD69
:10593000C4F10C04C4F1200500FA04F320FA05F0C8
:1059400001FA04F240EA020001F0004110EBD370CA
:1059500041F100015EEA430E08BF20EAD37070BD3A
:10596000C4F1200500FA05F24EEA020E20FA04F313
:1059700001FA05F243EA020321FA04F001F00041C2
:1059800021FA04F220EA020000EBD3705EEA430E33
:1059900008BF20EAD37070BD94F0000F0FD101F062
:1059A0000046400041EB010111F4801F08BF013C9B
:1059B000F7D041EA060195F0000F18BF704703F0D9
:1059C0000046520043EB030313F4801F08BF013D60
:1059D000F7D043EA0603704794EA0C0F0CEA13551C
:1059E00018BF95EA0C0F0CD050EA410618BF52EAD6
:1059F0004306D1D181EA030101F000414FF00000DC
:105A000070BD50EA410606BF1046194652EA4306E9
:105A100019D094EA0C0F02D150EA013613D195EA5D
:105A20000C0F05D152EA03361CBF104619460AD1A5
:105A300081EA030101F0004141F0FE4141F47001AF
:105A40004FF0000070BD41F0FE4141F4780170BD9F
:105A500070B54FF0FF0C4CF4E06C1CEA11541DBF04
:105A60001CEA135594EA0C0F95EA0C0F00F0A7F806
:105A7000A4EB050481EA030E52EA03354FEA013133
:105A800000F088804FEA03334FF0805545EA131346
:105A900043EA12634FEA022245EA111545EA10650E
:105AA0004FEA00260EF000419D4208BF964244F1A5
:105AB000FD0404F5407402D25B084FEA3202B61AC4
:105AC00065EB03055B084FEA32024FF480104FF498
:105AD000002CB6EB020E75EB030E22BFB61A75460C
:105AE00040EA0C005B084FEA3202B6EB020E75EB9F
:105AF000030E22BFB61A754640EA5C005B084FEA07
:105B00003202B6EB020E75EB030E22BFB61A7546D3
:105B100040EA9C005B084FEA3202B6EB020E75EBDE
:105B2000030E22BFB61A754640EADC0055EA060E9F
:105B300018D04FEA051545EA16754FEA06164FEAE2
:105B4000C30343EA52734FEAC2025FEA1C1CC0D18E
:105B500011F4801F0BD141EA00014FF000004FF01B
:105B6000004CB6E711F4801F04BF01430020B4F1DC
:105B7000FD0C88BFBCF5E06F3FF6AFAEB5EB030C94
:105B800004BFB6EB020C5FEA500C50F1000041EB91
:105B9000045170BD0EF0004E4EEA113114EB5C045E
:105BA000C2BFD4EB0C0541EA045170BD41F4801131
:105BB0004FF0000E013C90E645EA060E8DE60CEA39
:105BC000135594EA0C0F08BF95EA0C0F3FF43BAF56
:105BD00094EA0C0F0AD150EA01347FF434AF95EA0D
:105BE0000C0F7FF425AF104619462CE795EA0C0FF1
:105BF00006D152EA03353FF4FDAE1046194622E7BE
:105C000050EA410618BF52EA43067FF4C5AE50EA97
:105C100041047FF40DAF52EA43057FF4EBAE12E787
:105C200010B5054C13462CB10A4601460220AFF3CD
:105C3000008010BD204610BD0000000010B5431EBE
:105C40000A44914204D011F8014B03F8014FF8E7E0
:105C500010BD02440346934202D003F8011BFAE749
:105C60007047000038B5124B1C68A36B0546D3B9CA
:105C70001820FEF74DFD43F20E33A06303804AF671
:105C8000CD33438041F2342383804EF26D63C38071
:105C90004DF6EC630381052343810B2383810122AD
:105CA0000023C0E90423A36B00221D615A6138BDA3
:105CB00094E40320034613F8012B002AFBD1181AA1
:105CC0000138704721400D005D400D0089400D00F6
:105CD0008D400D000000000054656D704600546555
:105CE0006D70430000000000000000008F470D00B1
:105CF00085470D007B470D0071470D0065470D007E
:105D000059470D004D470D0045470D003B470D001D
:105D100031470D00814F0D00000000000000000021
:105D2000AD470D00AF470D006261756400536572A9
:105D300069616C0053657269616C310074797065DA
:105D400000706172616D00636D6400696400686E6B
:105D500064007374726D0066696C74006C766C001C
:105D600061646448616E646C65720072656D6F7623
:105D70006548616E646C657200656E756D48616E34
:105D8000646C657273004A534F4E53747265616D53
:105D90004C6F6748616E646C6572006170700025BD
:105DA0003031307520005D20002564002C20002853
:105DB000293A2000205B00636F6465203D200025A8
:105DC000690064657461696C73203D20000D0A00F0
:105DD00066006C6E00666E00636F646500646574D7
:105DE00061696C006E6F6E65007472616365006955
:105DF0006E666F007761726E006572726F7200700E
:105E0000616E696300616C6C005A00252B3033644D
:105E10003A253032750025592D256D2D25645425E0
:105E2000483A254D3A2553257A0061736374696DAC
:105E30006500000000000000000000001D4A0D0089
:105E40000D4A0D000F4A0D00000000000000000088
:105E5000F54A0D00454B0D00534B0D0015480D0044
:105E6000314B0D00F74A0D000D4B0D003F4B0D005F
:105E7000234B0D00F14A0D0000000000000000005F
:105E8000F94B0D00494C0D00574C0D0015480D0005
:105E90000D4C0D002F4C0D001B4C0D00434C0D0004
:105EA000FB4B0D00FF4B0D00000000000000000048
:105EB000314D0D007B4D0D00534D0D00334D0D0048
:105EC0005B4D0D00634D0D006B4D0D00734D0D00CE
:105ED0000000000000000000134E0D00094E0D00F0
:105EE000FF4D0D00F54D0D00E94D0D00DD4D0D0090
:105EF000D14D0D00C94D0D00BF4D0D00B54D0D002C
:105F0000814F0D000000000000000000194F0D003F
:105F1000234F0D002D4F0D00374F0D00414F0D0049
:105F20004D4F0D00594F0D00654F0D006D4F0D0089
:105F3000774F0D00814F0D000000000000000000B1
:105F40000000000000000000000000000000000051
:105F50000000000000000000000000000000000041
:105F60000000000000000000000000000000000031
:105F70000000000000000000000000000000000021
:105F80000000000000000000000000000000000011
:105F9000000000000000000025410D003D410D0003
:105FA000A5430D0099470D00ED470D0005480D0074
:105FB000C5480D00D5480D000D490D00C94E0D0016
:105FC0004D500D0069510D00FD510D0081520D0025
:105FD00045530D0009540D000000000000000000B2
:105FE0002A5E0D0000000000385F0D00585F0D00B4
:105FF000785F0D00000000000000000000000000BD
:1060000000000000E25C0D00000000000000000045
:106010000000000000000000000000000000000080
:106020000000000000000000000000000000000070
:106030000000000000000000000000000000000060
:086040000000000034E403201D
:10604800FFFFFFFF00000102030405060708090A15
:106058000B0C0D0E0F101112131415161718191A10
:086068001B1C1D1E1F20280057
:046070007856341218
:04000003D0004020C9
:00000001FF
