:02000002D0002C
:1040000000400D00F0610D00000006000C000501ED
:08401000040179050000000025
:04401800D05D0D006A
:1040200009480A49884208B505D0094A824202D0A7
:10403000121A01F089FE0748074A0021121A01F0FE
:104040008EFE014808BD00BF28E4032060610D001A
:1040500090E4032090E40320F0E7032070B500F023
:1040600003FD074C074BE41AA40800251E46A54291
:1040700004D056F8253098470135F8E770BD00BFE9
:1040800054610D0010610D0000F03CB808B500F05F
:1040900073F8BDE8084000F0B5BC00F089BB00F043
:1040A0008FBB00F08DBB0078B0FA80F040097047FC
:1040B0000123037070472DE9F0414C2494B005466C
:1040C000884617460021224601A81E4601F047FEF9
:1040D0001A9B05931B9B8DF818301C9B8DF819308B
:1040E000002301AA194668680194CDF80880039757
:1040F000049600F035FBB0FA80F0400914B0BDE83A
:10410000F08100007FB5134D1349002403260A23D4
:104110008DE848000294114B0D222846FFF7CBFF93
:1041200008230093029401960D4B0E491422284651
:10413000FFF7C1FF234609220B490C4800F028FB7A
:104140000B490C482346092204B0BDE8704000F03A
:104150001FBB00BF04E70320EF5D0D00E45D0D0011
:10416000FD5D0D00065E0D0098E403201B5E0D0052
:10417000C0E40320215E0D0010B50B4C204600F07A
:104180004AF9204600F040F8084B204683ED000B2A
:1041900000F056F8064B83ED000B42F21070BDE8BC
:1041A000104000F0F1BB00BFA0E4032098E403201E
:1041B000C0E4032008B500F04FF9002201210248B5
:1041C000BDE8084000F004B8A0E4032000F044B9C2
:1041D000032310B50446037605234376C8B2227044
:1041E0006070012100F0E6FF2078012100F0E2FF7D
:1041F0006078012100F0EFFF2078002100F0EBFF54
:10420000204610BD0000000010B50446408801F0B3
:1042100005FB07A3D3E9002301F076FB06A3D3E94E
:10422000002301F0BDF9C4E9020141EC100B10BDFF
:104230003BDF4F8D976E923F3333333333B343407D
:1042400010B50446408801F0E9FA07A3D3E900233A
:1042500001F05AFB06A3D3E9002301F0A1F9C4E958
:10426000040141EC100B10BD7B14AE47E17A843F92
:104270003333333333D3434038B504460D464078A7
:10428000012100F097FF2078012100F093FF607872
:10429000012100F0A0FF2078012100F09CFF607850
:1042A000002100F098FF2078002100F094FF207892
:1042B000012100F090FF6078012100F08CFF207850
:1042C000002100F088FF2B4601222178607800F061
:1042D000AEFF2078012100F07EFF0021607800F021
:1042E00069FF607800F090FF2078002100F073FFF4
:1042F0006078BDE8384000F087BF38B5002105463A
:10430000407800F057FF64240A2000F03DFB6878F5
:1043100000F07AFF08B1013CF6D138BD10B5044673
:104320000121407800F046FF2078012100F042FF93
:104330006078012100F04FFF2078012100F04BFF51
:1043400020780021BDE8104000F045BFF8B50024FA
:1043500006460F462546BD4211DA0121307800F0AD
:104360003AFF0A2000F010FB707800F04DFF640067
:1043700004440021307800F02EFF0135EBE72046A1
:10438000F8BD38B5044609B1051D00E0851C0021C3
:10439000607800F00FFF0121207800F00BFF08216A
:1043A0002046FFF7D3FF000228800121607800F04B
:1043B00001FF0121607800F00EFF0021607800F01D
:1043C0000AFF0121207800F006FF0021207800F08C
:1043D00002FF0021607800F0EDFE08212046FFF783
:1043E000B5FF2B881843288038BD38B504460D46E4
:1043F00009B1417E00E0017E2046FFF73DFF2046E7
:10440000FFF77BFF20462946FFF7BBFF2046BDE8AC
:104410003840FFF783BF10B500210446FFF7E5FFE2
:104420004FF47A7000F0B0FA20460121BDE8104048
:10443000FFF7DBBF00F010B808B5024B1B689B68A4
:10444000019308BD6802030008B5024B1B68DB68D6
:10445000019308BD6802030008B5024B1B681B6886
:10446000019308BD2C02030008B5024B1B689B6832
:10447000019308BD2C02030008B5024B1B68DB68E2
:10448000019308BD2C02030008B5024B1B681B6991
:10449000019308BD2C02030008B5024B1B685B6941
:1044A000019308BD2C02030008B5024B1B68DB69B1
:1044B000019308BD3002030008B5024B1B681B6A5C
:1044C000019308BD3002030008B5024B1B685B680E
:1044D000019308BD1802030008B5024B1B685B6915
:1044E000019308BD1802030008B5024B1B689B68C6
:1044F000019308BD4802030008B5024B1B681B6905
:10450000019308BD4802030008B5024B1B685B69B4
:10451000019308BD4802030008B5024B1B681B6BE2
:10452000019308BD4802030008B5024B1B685B6C91
:10453000019308BD4802030008B5024B1B685B6984
:10454000019308BD6402030008B5024B1B681B6899
:10455000019308BD3C02030008B5024B1B68DB68F1
:10456000019308BD3C02030008B5024B1B681B69A0
:10457000019308BD3C02030008B5024B1B685B6950
:10458000019308BD3C02030008B5024B1B689B6900
:10459000019308BD3C02030008B5024B1B68DB69B0
:1045A000019308BD3C02030008B5024B1B681B6A5F
:1045B000019308BD3C02030008B5024B1B689B6ACF
:1045C000019308BD3C02030008B5024B1B681B6A3F
:1045D000019308BD2802030008B5024B1B685B6A03
:1045E000019308BD2802030008B5024B1B689B6AB3
:1045F000019308BD2802030008B5024B1B68DB6A63
:10460000019308BD2802030008B5024B1B681B6B11
:10461000019308BD2802030008B5024B1B685B6BC1
:10462000019308BD2802030008B5024B1B681B6CF0
:10463000019308BD2802030008B5024B1B681B68E4
:10464000019308BD4C02030008B5024B1B681B69AF
:10465000019308BD4C02030008B5024B1B685B695F
:10466000019308BD4C02030008B5024B1B689B690F
:10467000019308BD4C02030008B5024B1B68DB69BF
:10468000019308BD4C02030008B5024B1B681B6A6E
:10469000019308BD4C02030008B5024B1B685B6820
:1046A000019308BD2002030008B5024B1B685B693B
:1046B000019308BD2002030008B5034B1B68D3F823
:1046C0008830019308BD00002002030008B5034BA9
:1046D0001B68D3F89430019308BD0000200203004A
:1046E00008B5024B1B685B68019308BD40020300DC
:1046F00008B5024B1B689B68019308BD400203008C
:1047000008B5024B1B68DB68019308BD400203003B
:1047100008B5024B1B681B69019308BD40020300EA
:1047200008B5024B1B685B69019308BD400203009A
:1047300008B5024B1B689B69019308BD400203004A
:1047400008B5024B1B68DB69019308BD40020300FA
:1047500008B5024B1B681B6A019308BD40020300A9
:1047600008B5024B1B689B6A019308BD4002030019
:1047700008B5024B1B681B6B019308BD4002030088
:1047800008B5024B1B685B6B019308BD4002030038
:1047900008B5024B1B681B68019308BD4402030067
:1047A00008B5024B1B68DB6B019308BD4402030094
:1047B00008B5024B1B681B68019308BD1C0203006F
:1047C00008B5024B1B685B68019308BD1C0203001F
:1047D000002211464068FFF7BBBF00221146406827
:1047E000FFF7CEBF00224068FFF7C2BF002281F072
:1047F00001014068FFF7A4BF00231A46194640682C
:10480000FFF796BF00231A4619464068FFF788BF96
:10481000002211464068FFF77BBF00221146406826
:10482000FFF766BF002202214068FFF769BF00233F
:104830001A464068FFF754BF024B03225A60024AEF
:104840001A607047C8E40320305E0D00704710B551
:104850001021044600F055FD204610BD70B5084BF0
:104860000360044600250E4640F80C5FFFF754FE37
:1048700030462671FFF718FEA560204670BD00BFC8
:10488000645E0D000079FFF717BE0000044B0020A6
:104890004FF6FF72187058809A80FFF7FDBE00BF78
:1048A000D0E40320024800230360FFF73DBE00BFB1
:1048B000D8E40320F8B506460D468F180024BD4203
:1048C0000CD0336815F8011B9B68304698470028C8
:1048D00001DB0444F3E7002C08BF04462046F8BD82
:1048E00070B505460C46084649B101F069FA2B68D7
:1048F000024621462846DB68BDE87040184770BD77
:1049000003689B68184730B58BB00B4600218DF8C3
:104910002410012A98BF0A220DF12304B3FBF2F5FB
:1049200005FB123303F0FF03092B94BF30333733F9
:10493000DBB2214604F801392B46002DEED1FFF7FA
:10494000CFFF0BB030BD10B42AB903685DF8044B3B
:104950009B68C9B21847D2B25DF8044BFFF7D3BFCA
:10496000FFF7F1BF014B024A1A607047DCE40320F5
:10497000DF5E0D00024B1A68024B1A60704700BFE1
:1049800028E40320E0E403200021FFF78DBE10B5EA
:104990008368044613B1032201469847204610BDA0
:1049A00010B50446FFF7F3FF204610BD0348044A44
:1049B00004490023836000F09FBC00BFE4E40320AF
:1049C00090E40320A1490D0008B50C4B33B100F071
:1049D00035F903681B699847002809DC084B63B167
:1049E00000F0AEF903681B699847002803DC08BD96
:1049F000AFF30080F2E7AFF3008008BD00000000D5
:104A00000000000008B5FFF7DFFFFFF765FD014B71
:104A1000186008BD34E7032007B5002300931A4649
:104A20006FF07701FFF752FE03B05DF804FB000062
:104A300007B543880A2B08D0502B09D1094B1B68B6
:104A40003BB103B05DF804EB1847FFF7E5FF06E064
:104A5000002300931A466FF07701FFF737FE03B08B
:104A60005DF804FBF4E4032010B5FFF72DFD0446C8
:104A700001F07EF9074B13B12046AFF3008000210F
:104A80000448FFF78DFE00210348BDE81040FFF702
:104A900013BE00BF00000000314A0D00704710B582
:104AA0001821044600F02DFC204610BDF0B5037D12
:104AB000062B8DB00E4600F104074FF0000402D023
:104AC00000F1080518E00CAD394605F8304D2F23EC
:104AD0002A460A20FFF730FD284601F071F93368B5
:104AE0000246DB682946304698470FE024B12E2164
:104AF0003046FFF705FF044415F8011D0A22304631
:104B0000FFF72EFFBD420444F0D120460DB0F0BDAA
:104B100010B5054B0446112240F8043B002101F07A
:104B20001EF9204610BD00BF805F0D000346074AF6
:104B300010B543F8042B01F1100251F8044B43F86F
:104B4000044B9142F9D10A781A7010BD805F0D00B4
:104B500010B59DF8084044EA032343EA024242EAC2
:104B6000016104234160037510BD37B50D788B7862
:104B70004A78C97800912946FFF7EAFF03B030BDB3
:104B800041747047704708B50021007CFFF76CFD49
:104B900030EA200028BF4FF0FF3008BD08B50121E2
:104BA000007CFFF761FD30EA200028BF4FF0FF30A6
:104BB00008BD08B5007CFFF74FFD20EAE07008BD96
:104BC00008B5007CFFF740FD20EAE07008BD007CDE
:104BD000FFF75ABD10B51421044600F092FB2046A1
:104BE00010BD38B50446007C0D46FFF735FD0028A2
:104BF00001DC607C28B12946207CFFF73DFD20EADE
:104C0000E07038BD10B50446002363604FF47A733A
:104C1000A360054B23600123084621746374114689
:104C2000FFF70AFD204610BD945F0D0010B5142259
:104C30000446002101F093F8204610BD30B50E4D1A
:104C400087B001A8FFF7F2FF296811F0010410D125
:104C50002846FFF728FA60B101AA21460748FFF766
:104C6000D1FF2846FFF724FA054A0649034800F019
:104C700043FB024807B030BDF8E40320FCE4032006
:104C800090E40320854B0D0070474174704708B5D0
:104C9000007CFFF791FC20EAE07008BD08B5007CBD
:104CA000FFF762FC20EAE07008BD08B5007CFFF762
:104CB0006BFC30EA200028BF4FF0FF3008BD08B57C
:104CC000007CFFF759FC30EA200028BF4FF0FF308E
:104CD00008BD007CFFF760BC10B51421044600F04D
:104CE00010FB204610BD70B5457C04460E4625B924
:104CF000007CFFF761FC002805DD3146207CBDE823
:104D00007040FFF729BC284670BD000010B504466E
:104D100008461146002262604FF47A72A260054A8A
:104D200022600122207462741A46FFF70DFC2046AF
:104D300010BD00BFC45F0D00007CFFF735BC000054
:104D4000F8B5194C25684DB98420FFF7A6F9064639
:104D500018B18422294601F002F82660134D2E680E
:104D60004EB98420FFF799F9074618B184223146DD
:104D700000F0F5FF2F600E4F396811F0010611D1D8
:104D80003846FFF790F968B122682B680948314628
:104D9000FFF7BCFF3846FFF78BF9074A074905487C
:104DA00000F0AAFA0348F8BD2CE5032024E503200F
:104DB00028E5032010E5032090E40320894C0D0032
:104DC0007047F8B5064615460C468F18BC4206D00B
:104DD000336814F8011B9B6830469847F6E728466D
:104DE000F8BD0022007CFFF7EFBB0021007CFFF73D
:104DF000F3BB0021007CFFF7F7BB0021007CFFF72D
:104E0000FBBB0021007CFFF7FFBB10B5142104465B
:104E100000F077FA204610BD10B504464FF47A73BF
:104E20000846A3600021044B207461602360FFF7F3
:104E3000FBFB204610BD00BFF45F0D000021007C8D
:104E4000FFF7EABB002211464068FFF781BC002251
:104E500011464068FFF794BC00224068FFF788BC09
:104E6000002281F001014068FFF76ABC00231A4666
:104E700001214068FFF75CBC00231A4619464068D0
:104E8000FFF74EBC002211464068FFF741BC0022EC
:104E900011464068FFF72CBC002202214068FFF752
:104EA0002FBC00231A464068FFF71ABC38B50546E8
:104EB00088B104684CB1A3681BB103222146204687
:104EC00098471021204600F01CFA28461421BDE81E
:104ED000384000F016BA38BD10B103685B68184757
:104EE000704710B503680446BBB15868FFF7FCFA79
:104EF00078B923685A7C12B95868FFF7FDFA23681D
:104F00005868FFF701FB20680023236028B1FFF7F2
:104F1000CDFF206808B1FFF7C9FF204610BD000093
:104F200038B50C4B03600446D0F8CC0108B1FFF74C
:104F3000B8F8D4F8C45135B12846FFF7D2FF0421A0
:104F4000284600F0DEF9A06808B1FFF7C5FF20464B
:104F500038BD00BF1C600D0038B50E4C0E4B2360F1
:104F60000025022304F5E4706360A560C4F8C45111
:104F7000C4F8C851FFF7D8FA084BC4F8CC5184F8EC
:104F8000D05123602046064A0649BDE8384000F06B
:104F9000B3B900BF30E5032084600D001C600D0034
:104FA00090E40320214F0D00002211464068FFF7D6
:104FB000AFBB002211464068FFF7CABB0022114672
:104FC0004068FFF7DDBB00224068FFF7D1BB00223D
:104FD00081F001014068FFF7B3BB00231A46194670
:104FE0004068FFF7A5BB00231A4619464068FFF743
:104FF00097BB002211464068FFF77ABB00220221CE
:105000004068FFF77DBB00231A464068FFF768BB86
:10501000024B04225A60024A1A60704704E70320D8
:1050200050600D0000231A464068FFF759BB00226C
:1050300002214068FFF764BB002211464068FFF779
:1050400057BB002211464068FFF762BB00231A4697
:1050500019464068FFF764BB00231A4619464068AA
:10506000FFF766BB002281F001014068FFF768BBD3
:1050700000224068FFF77CBB002211464068FFF722
:105080007FBB002211464068FFF762BB2DE9F04369
:10509000002495B016460D460746FFF739FD214618
:1050A00020220CA8009400F05AFE40230C932146C5
:1050B0006B460CAA3046FFF7C7F90446002844D1D6
:1050C000024601216868FFF723FB02218046224641
:1050D0006868FFF71DFB009E81462146002E34D0F4
:1050E000002932D17368022B02D00A2B09D02AE0A2
:1050F000B8F1000F27D0716938460431FFF735FD4C
:1051000020E0B9F1000F1ED07469112201A800F04F
:1051100026FE06238DF8143001AD04F1080318347F
:10512000186859682A4603C20833A3421546F7D1C6
:1051300001A906A807ADFFF7F9FC0FCD3C1D0FC470
:105140002B6823700121F669C8E70098FFF774F90E
:10515000384615B0BDE8F083024B034A1A600022BE
:105160005A6070470CE7032084600D0010B50446B8
:105170000F48FFF787FB28B1A4F10B03022B01D8DE
:10518000002010BD00F098F8FFF758FE08B1012C80
:10519000F6D9FFF7D5FDFFF7CFFD18B1A4F109034C
:1051A000012BEDD9232C8CBF0020012010BD00BFA6
:1051B00014E70320232838B504460D460AD8FF29F2
:1051C00008D0FFF7D3FF28B129462046BDE8384074
:1051D000FFF74AB938BD38B504460D46FFF74CF91C
:1051E000FF2810D0062804D84D2323FA00F0C30767
:1051F00009D42046FFF7BAFF28B129462046BDE86A
:105200003840FFF741B938BD10B50446FFF734F90F
:105210000438C0B2012808D92046FFF7A7FF20B103
:105220002046BDE81040FFF737B9002010BD2DE93A
:10523000F04190461E46072407460D46B8F1000F80
:1052400004D1C4F1070146FA01F101E046FA04F184
:1052500001F001013846FFF7BEFF01212846FFF7A4
:10526000BAFF00212846FFF7B6FF14F1FF34E5D25C
:10527000BDE8F08170B50C4C0C4E0D4D0021204660
:10528000FFF7ECFA20460B4C3246294600F034F882
:1052900001212046FFF7E2FA324629462046BDE8C2
:1052A000704000F029B800BF14E7032090E4032009
:1052B0004D480D0024E7032038B50B4D296811F047
:1052C00001040FD12846FEF7EEFE58B121460748EB
:1052D000FFF7A2FD2846FEF7EBFE054A0549034805
:1052E00000F00AF8014838BD38E703203CE7032006
:1052F00090E40320C14D0D000B460146184600F016
:1053000015BDFEF7CCBE0000184B1A68D1075CBF74
:1053100001221A60164B1A68D2075CBF01221A607C
:10532000144B1A68D0075CBF01221A60124B1A682E
:10533000D1075CBF01221A60104B1A68D2075CBF0C
:1053400001221A600E4B1A68D0075CBF01221A6056
:105350000C4B1A68D1075CBF01221A600A4B1A680D
:10536000D2075CBF01221A60704700BF6CE70320C0
:1053700068E7032064E7032060E703205CE703207D
:1053800058E7032054E7032050E70320244B1A6812
:10539000D0075CBF01221A60224B1A68D1075CBF9C
:1053A00001221A60204B1A68D2075CBF01221A60E2
:1053B0001E4B1A68D0075CBF01221A601C4B1A688A
:1053C000D1075CBF01221A601A4B1A68D2075CBF72
:1053D00001221A60184B1A68D0075CBF01221A60BC
:1053E000164B1A68D1075CBF01221A60144B1A6869
:1053F000D2075CBF01221A60124B1A68D0075CBF4B
:1054000001221A60104B1A68D1075CBF01221A6092
:105410000E4B1A68D2075CBF01221A60704700BFAA
:105420009CE7032098E7032094E7032090E70320FC
:105430008CE7032088E7032084E7032080E703202C
:105440007CE7032078E7032074E7032070E703205C
:10545000244B1A68D0075CBF01221A60224B1A68DD
:10546000D1075CBF01221A60204B1A68D2075CBFCB
:1054700001221A601E4B1A68D0075CBF01221A6015
:105480001C4B1A68D1075CBF01221A601A4B1A68BC
:10549000D2075CBF01221A60184B1A68D0075CBFA4
:1054A00001221A60164B1A68D1075CBF01221A60EC
:1054B000144B1A68D2075CBF01221A60124B1A689B
:1054C000D0075CBF01221A60104B1A68D1075CBF7D
:1054D00001221A600E4B1A68D2075CBF01221A60C3
:1054E000704700BFCCE70320C8E70320C4E70320D0
:1054F000C0E70320BCE70320B8E70320B4E703209C
:10550000B0E70320ACE70320A8E70320A4E70320CB
:10551000A0E70320184B1A68D1075CBF01221A606C
:10552000164B1A68D2075CBF01221A60144B1A6826
:10553000D0075CBF01221A60124B1A68D1075CBF0A
:1055400001221A60104B1A68D2075CBF01221A6050
:105550000E4B1A68D0075CBF01221A600C4B1A6808
:10556000D1075CBF01221A600A4B1A68D2075CBFE0
:1055700001221A60704700BFECE70320E8E7032030
:10558000E4E70320E0E70320DCE70320D8E703207B
:10559000D4E70320D0E7032081F0004102E000BF00
:1055A00083F0004330B54FEA41044FEA430594EAE3
:1055B000050F08BF90EA020F1FBF54EA000C55EA1E
:1055C000020C7FEA645C7FEA655C00F0E2804FEAEF
:1055D0005454D4EB5555B8BF6D420CDD2C4480EAD1
:1055E000020281EA030382EA000083EA010180EA01
:1055F000020281EA0303362D88BF30BD11F0004F4F
:105600004FEA01314FF4801C4CEA113102D0404284
:1056100061EB410113F0004F4FEA03334CEA1333BF
:1056200002D0524263EB430394EA050F00F0A780D7
:10563000A4F10104D5F1200E0DDB02FA0EFC22FAD2
:1056400005F2801841F1000103FA0EF2801843FAC6
:1056500005F359410EE0A5F120050EF1200E012AB7
:1056600003FA0EFC28BF4CF0020C43FA05F3C018F5
:1056700051EBE37101F0004507D54FF0000EDCF16E
:10568000000C7EEB00006EEB0101B1F5801F1BD317
:10569000B1F5001F0CD349085FEA30004FEA3C0C1B
:1056A00004F101044FEA445212F5800F80F09A8011
:1056B000BCF1004F08BF5FEA500C50F1000041EB15
:1056C000045141EA050130BD5FEA4C0C404141EB19
:1056D000010111F4801FA4F10104E9D191F0000F40
:1056E00004BF01460020B1FA81F308BF2033A3F1C3
:1056F0000B03B3F120020CDA0C3208DD02F1140CBA
:10570000C2F10C0201FA0CF021FA02F10CE002F1F4
:105710001402D8BFC2F1200C01FA02F120FA0CFCED
:10572000DCBF41EA0C019040E41AA2BF01EB045136
:10573000294330BD6FEA04041F3C1CDA0C340EDC34
:1057400004F11404C4F1200220FA04F001FA02F377
:1057500040EA030021FA04F345EA030130BDC4F135
:105760000C04C4F1200220FA02F001FA04F340EA2A
:105770000300294630BD21FA04F0294630BD94F0DB
:10578000000F83F4801306BF81F480110134013DC2
:105790004EE77FEA645C18BF7FEA655C29D094EA33
:1057A000050F08BF90EA020F05D054EA000C04BFB1
:1057B0001946104630BD91EA030F1EBF002100209C
:1057C00030BD5FEA545C05D14000494128BF41F03B
:1057D000004130BD14F580043CBF01F5801130BD9F
:1057E00001F0004545F0FE4141F470014FF000002A
:1057F00030BD7FEA645C1ABF194610467FEA655CDB
:105800001CBF0B46024650EA013406BF52EA03357C
:1058100091EA030F41F4002130BD00BF90F0000F6A
:1058200004BF0021704730B54FF4806404F13204A6
:105830004FF000054FF0000150E700BF90F0000F5F
:1058400004BF0021704730B54FF4806404F1320486
:1058500010F0004548BF40424FF000013EE700BF56
:1058600042004FEAE2014FEA31014FEA02701FBFE6
:1058700012F07F4393F07F4F81F06051704792F0B8
:10588000000F14BF93F07F4F704730B54FF4607432
:1058900001F0004521F0004120E700BF50EA01027D
:1058A00008BF704730B54FF000050AE050EA01022A
:1058B00008BF704730B511F0004502D5404261EB9A
:1058C00041014FF4806404F132045FEA915C3FF4DB
:1058D000DCAE4FF003025FEADC0C18BF03325FEA74
:1058E000DC0C18BF033202EBDC02C2F1200300FA29
:1058F00003FC20FA02F001FA03FE40EA0E0021FA4E
:1059000002F11444C1E600BF70B54FF0FF0C4CF437
:10591000E06C1CEA11541DBF1CEA135594EA0C0FED
:1059200095EA0C0F00F0DEF82C4481EA030621EA28
:105930004C5123EA4C5350EA013518BF52EA033563
:1059400041F4801143F4801338D0A0FB02CE4FF015
:105950000005E1FB02E506F00042E0FB03E54FF045
:105960000006E1FB03569CF0000F18BF4EF0010E3D
:10597000A4F1FF04B6F5007F64F5407404D25FEA39
:105980004E0E6D4146EB060642EAC62141EA5551EC
:105990004FEAC52040EA5E504FEACE2EB4F1FD0C2E
:1059A00088BFBCF5E06F1ED8BEF1004F08BF5FEAAC
:1059B000500E50F1000041EB045170BD06F000465E
:1059C00046EA010140EA020081EA0301B4EB5C040B
:1059D000C2BFD4EB0C0541EA045170BD41F4801103
:1059E0004FF0000E013C00F3AB8014F1360FDEBF28
:1059F000002001F0004170BDC4F10004203C35DA04
:105A00000C341BDC04F11404C4F1200500FA05F386
:105A100020FA04F001FA05F240EA020001F0004227
:105A200021F0004110EBD37021FA04F642EB06019D
:105A30005EEA430E08BF20EAD37070BDC4F10C04C7
:105A4000C4F1200500FA04F320FA05F001FA04F28B
:105A500040EA020001F0004110EBD37041F1000177
:105A60005EEA430E08BF20EAD37070BDC4F1200582
:105A700000FA05F24EEA020E20FA04F301FA05F2EA
:105A800043EA020321FA04F001F0004121FA04F292
:105A900020EA020000EBD3705EEA430E08BF20EA62
:105AA000D37070BD94F0000F0FD101F0004640009C
:105AB00041EB010111F4801F08BF013CF7D041EA1E
:105AC000060195F0000F18BF704703F00046520022
:105AD00043EB030313F4801F08BF013DF7D043EAF3
:105AE0000603704794EA0C0F0CEA135518BF95EAA9
:105AF0000C0F0CD050EA410618BF52EA4306D1D130
:105B000081EA030101F000414FF0000070BD50EA4E
:105B1000410606BF1046194652EA430619D094EAD8
:105B20000C0F02D150EA013613D195EA0C0F05D1C2
:105B300052EA03361CBF104619460AD181EA030116
:105B400001F0004141F0FE4141F470014FF00000CE
:105B500070BD41F0FE4141F4780170BD70B54FF069
:105B6000FF0C4CF4E06C1CEA11541DBF1CEA1355E9
:105B700094EA0C0F95EA0C0F00F0A7F8A4EB0504CB
:105B800081EA030E52EA03354FEA013100F08880C2
:105B90004FEA03334FF0805545EA131343EA12638B
:105BA0004FEA022245EA111545EA10654FEA002640
:105BB0000EF000419D4208BF964244F1FD0404F5F9
:105BC000407402D25B084FEA3202B61A65EB030555
:105BD0005B084FEA32024FF480104FF4002CB6EB12
:105BE000020E75EB030E22BFB61A754640EA0C0092
:105BF0005B084FEA3202B6EB020E75EB030E22BFD2
:105C0000B61A754640EA5C005B084FEA3202B6EB12
:105C1000020E75EB030E22BFB61A754640EA9C00D1
:105C20005B084FEA3202B6EB020E75EB030E22BFA1
:105C3000B61A754640EADC0055EA060E18D04FEA5F
:105C4000051545EA16754FEA06164FEAC30343EAFF
:105C500052734FEAC2025FEA1C1CC0D111F4801FCC
:105C60000BD141EA00014FF000004FF0004CB6E7C5
:105C700011F4801F04BF01430020B4F1FD0C88BF64
:105C8000BCF5E06F3FF6AFAEB5EB030C04BFB6EB6F
:105C9000020C5FEA500C50F1000041EB045170BD62
:105CA0000EF0004E4EEA113114EB5C04C2BFD4EB8F
:105CB0000C0541EA045170BD41F480114FF0000E13
:105CC000013C90E645EA060E8DE60CEA135594EA8F
:105CD0000C0F08BF95EA0C0F3FF43BAF94EA0C0F92
:105CE0000AD150EA01347FF434AF95EA0C0F7FF407
:105CF00025AF104619462CE795EA0C0F06D152EA5B
:105D000003353FF4FDAE1046194622E750EA41063E
:105D100018BF52EA43067FF4C5AE50EA41047FF44F
:105D20000DAF52EA43057FF4EBAE12E710B5054C18
:105D300013462CB10A4601460220AFF3008010BD85
:105D4000204610BD0000000010B5431E0A449142D9
:105D500004D011F8014B03F8014FF8E710BD0244DD
:105D60000346934202D003F8011BFAE77047000094
:105D700038B5124B1C68A36B0546D3B91820FEF743
:105D800017FD43F20E33A06303804AF6CD33438000
:105D900041F2342383804EF26D63C3804DF6EC6391
:105DA0000381052343810B23838101220023C0E962
:105DB0000423A36B00221D615A6138BD8CE40320CB
:105DC000034613F8012B002AFBD1181A013870473B
:105DD00021400D005D400D0089400D008D400D00FB
:105DE0000000000070617373777264313030004DD1
:105DF00041535445525F4C4150544F50003332355B
:105E000030654A2B3900494545452D544845524D8A
:105E1000414C54414B20343832340054656D704647
:105E20000054656D70430000000000000000000099
:105E30002F480D0025480D001B480D0011480D008E
:105E400005480D00F9470D00ED470D00E5470D0031
:105E5000DB470D00D1470D008D500D000000000004
:105E6000000000004D480D004F480D006261756450
:105E70000053657269616C0053657269616C310031
:105E80007479706500706172616D00636D640069A2
:105E90006400686E64007374726D0066696C7400EF
:105EA0006C766C0061646448616E646C657200724B
:105EB000656D6F766548616E646C657200656E75C0
:105EC0006D48616E646C657273004A534F4E537433
:105ED0007265616D4C6F6748616E646C65720061DC
:105EE000707000253031307520005D200025640081
:105EF0002C200028293A2000205B00636F64652075
:105F00003D200025690064657461696C73203D2043
:105F1000000D0A0066006C6E00666E00636F6465BB
:105F20000064657461696C006E6F6E650074726107
:105F3000636500696E666F007761726E00657272EC
:105F40006F720070616E696300616C6C005A0025AD
:105F50002B3033643A253032750025592D256D2DAF
:105F600025645425483A254D3A2553257A00617316
:105F70006374696D6500000000000000000000000F
:105F8000AD4A0D009D4A0D009F4A0D000000000023
:105F900000000000854B0D00D54B0D00E34B0D00BC
:105FA000B5480D00C14B0D00874B0D009D4B0D00FA
:105FB000CF4B0D00B34B0D00814B0D0000000000D6
:105FC00000000000894C0D00D94C0D00E74C0D007D
:105FD000B5480D009D4C0D00BF4C0D00AB4C0D00A5
:105FE000D34C0D008B4C0D008F4C0D0000000000B9
:105FF00000000000C14D0D000B4E0D00E34D0D00E3
:10600000C34D0D00EB4D0D00F34D0D00FB4D0D008C
:10601000034E0D000000000000000000A34E0D0024
:10602000994E0D008F4E0D00854E0D00794E0D00DE
:106030006D4E0D00614E0D00594E0D004F4E0D007E
:10604000454E0D008D500D000000000000000000C6
:1060500007500D00FD4F0D00F34F0D00A94F0D002F
:10606000E74F0D00DB4F0D00CF4F0D00C74F0D0068
:10607000BD4F0D00B34F0D008D500D00000000000E
:106080000000000025500D002F500D0039500D006C
:1060900043500D004D500D0059500D0065500D003E
:1060A00071500D0079500D0083500D008D500D0082
:1060B00000000000000000000000000000000000E0
:1060C00000000000000000000000000000000000D0
:1060D00000000000000000000000000000000000C0
:1060E00000000000000000000000000000000000B0
:1060F00000000000000000000000000000000000A0
:10610000000000000000000000000000000000008F
:10611000B5410D00CD410D0035440D0039480D004D
:106120008D480D00A5480D0065490D0075490D000D
:10613000AD490D00594F0D0011500D0059510D0082
:1061400075520D0009530D008D530D0051540D0073
:1061500015550D00000000000000000000000000C8
:106160006E5F0D0000000000B0600D00D0600D00FB
:10617000F0600D00000000000000000000000000C2
:1061800000000000255E0D0000000000000000007F
:1061900000000000000000000000000000000000FF
:1061A00000000000000000000000000000000000EF
:1061B00000000000000000000000000000000000DF
:0861C000000000002CE40320A4
:1061C800FFFFFFFF00000102030405060708090A94
:1061D8000B0C0D0E0F101112131415161718191A8F
:0861E8001B1C1D1E1F202800D6
:0461F0007856341297
:04000003D0004020C9
:00000001FF
